{
  "contractName": "AddressBook",
  "abi": [
    {
      "constant": true,
      "inputs": [],
      "name": "hasInitialized",
      "outputs": [
        {
          "name": "",
          "type": "bool"
        }
      ],
      "payable": false,
      "stateMutability": "view",
      "type": "function"
    },
    {
      "constant": true,
      "inputs": [
        {
          "name": "_script",
          "type": "bytes"
        }
      ],
      "name": "getEVMScriptExecutor",
      "outputs": [
        {
          "name": "",
          "type": "address"
        }
      ],
      "payable": false,
      "stateMutability": "view",
      "type": "function"
    },
    {
      "constant": true,
      "inputs": [],
      "name": "getRecoveryVault",
      "outputs": [
        {
          "name": "",
          "type": "address"
        }
      ],
      "payable": false,
      "stateMutability": "view",
      "type": "function"
    },
    {
      "constant": true,
      "inputs": [],
      "name": "REMOVE_ENTRY_ROLE",
      "outputs": [
        {
          "name": "",
          "type": "bytes32"
        }
      ],
      "payable": false,
      "stateMutability": "view",
      "type": "function"
    },
    {
      "constant": true,
      "inputs": [],
      "name": "ADD_ENTRY_ROLE",
      "outputs": [
        {
          "name": "",
          "type": "bytes32"
        }
      ],
      "payable": false,
      "stateMutability": "view",
      "type": "function"
    },
    {
      "constant": true,
      "inputs": [
        {
          "name": "token",
          "type": "address"
        }
      ],
      "name": "allowRecoverability",
      "outputs": [
        {
          "name": "",
          "type": "bool"
        }
      ],
      "payable": false,
      "stateMutability": "view",
      "type": "function"
    },
    {
      "constant": true,
      "inputs": [],
      "name": "appId",
      "outputs": [
        {
          "name": "",
          "type": "bytes32"
        }
      ],
      "payable": false,
      "stateMutability": "view",
      "type": "function"
    },
    {
      "constant": true,
      "inputs": [],
      "name": "getInitializationBlock",
      "outputs": [
        {
          "name": "",
          "type": "uint256"
        }
      ],
      "payable": false,
      "stateMutability": "view",
      "type": "function"
    },
    {
      "constant": false,
      "inputs": [
        {
          "name": "_token",
          "type": "address"
        }
      ],
      "name": "transferToVault",
      "outputs": [],
      "payable": false,
      "stateMutability": "nonpayable",
      "type": "function"
    },
    {
      "constant": true,
      "inputs": [
        {
          "name": "_sender",
          "type": "address"
        },
        {
          "name": "_role",
          "type": "bytes32"
        },
        {
          "name": "_params",
          "type": "uint256[]"
        }
      ],
      "name": "canPerform",
      "outputs": [
        {
          "name": "",
          "type": "bool"
        }
      ],
      "payable": false,
      "stateMutability": "view",
      "type": "function"
    },
    {
      "constant": true,
      "inputs": [],
      "name": "getEVMScriptRegistry",
      "outputs": [
        {
          "name": "",
          "type": "address"
        }
      ],
      "payable": false,
      "stateMutability": "view",
      "type": "function"
    },
    {
      "constant": true,
      "inputs": [],
      "name": "kernel",
      "outputs": [
        {
          "name": "",
          "type": "address"
        }
      ],
      "payable": false,
      "stateMutability": "view",
      "type": "function"
    },
    {
      "constant": true,
      "inputs": [],
      "name": "isPetrified",
      "outputs": [
        {
          "name": "",
          "type": "bool"
        }
      ],
      "payable": false,
      "stateMutability": "view",
      "type": "function"
    },
    {
      "anonymous": false,
      "inputs": [
        {
          "indexed": false,
          "name": "addr",
          "type": "address"
        }
      ],
      "name": "EntryAdded",
      "type": "event"
    },
    {
      "anonymous": false,
      "inputs": [
        {
          "indexed": false,
          "name": "addr",
          "type": "address"
        }
      ],
      "name": "EntryRemoved",
      "type": "event"
    },
    {
      "anonymous": false,
      "inputs": [
        {
          "indexed": true,
          "name": "executor",
          "type": "address"
        },
        {
          "indexed": false,
          "name": "script",
          "type": "bytes"
        },
        {
          "indexed": false,
          "name": "input",
          "type": "bytes"
        },
        {
          "indexed": false,
          "name": "returnData",
          "type": "bytes"
        }
      ],
      "name": "ScriptResult",
      "type": "event"
    },
    {
      "constant": false,
      "inputs": [],
      "name": "initialize",
      "outputs": [],
      "payable": false,
      "stateMutability": "nonpayable",
      "type": "function"
    },
    {
      "constant": false,
      "inputs": [
        {
          "name": "_addr",
          "type": "address"
        },
        {
          "name": "_name",
          "type": "string"
        },
        {
          "name": "_entryType",
          "type": "string"
        }
      ],
      "name": "addEntry",
      "outputs": [],
      "payable": false,
      "stateMutability": "nonpayable",
      "type": "function"
    },
    {
      "constant": false,
      "inputs": [
        {
          "name": "_addr",
          "type": "address"
        }
      ],
      "name": "removeEntry",
      "outputs": [],
      "payable": false,
      "stateMutability": "nonpayable",
      "type": "function"
    },
    {
      "constant": true,
      "inputs": [
        {
          "name": "_addr",
          "type": "address"
        }
      ],
      "name": "getEntry",
      "outputs": [
        {
          "name": "_entryAddress",
          "type": "address"
        },
        {
          "name": "_name",
          "type": "string"
        },
        {
          "name": "_entryType",
          "type": "string"
        }
      ],
      "payable": false,
      "stateMutability": "view",
      "type": "function"
    }
  ],
  "bytecode": "0x60806040526200001d62000023640100000000026401000000009004565b62000309565b60006200003e6200015e640100000000026401000000009004565b146040805190810160405280601881526020017f494e49545f414c52454144595f494e495449414c495a4544000000000000000081525090151562000121576040517f08c379a00000000000000000000000000000000000000000000000000000000081526004018080602001828103825283818151815260200191508051906020019080838360005b83811015620000e5578082015181840152602081019050620000c8565b50505050905090810190601f168015620001135780820380516001836020036101000a031916815260200191505b509250505060405180910390fd5b506200015c7fffffffffffffffffffffffffffffffffffffffffffffffffffffffffffffffff620001ab640100000000026401000000009004565b565b6000620001a67febb05b386a8d34882b8711d156f463690983dc47815980fb82aeeff1aa43579e60010260001916620002f76401000000000262002218176401000000009004565b905090565b6000620001c66200015e640100000000026401000000009004565b146040805190810160405280601881526020017f494e49545f414c52454144595f494e495449414c495a45440000000000000000815250901515620002a9576040517f08c379a00000000000000000000000000000000000000000000000000000000081526004018080602001828103825283818151815260200191508051906020019080838360005b838110156200026d57808201518184015260208101905062000250565b50505050905090810190601f1680156200029b5780820380516001836020036101000a031916815260200191505b509250505060405180910390fd5b50620002f4817febb05b386a8d34882b8711d156f463690983dc47815980fb82aeeff1aa43579e60010260001916620003026401000000000262002280179091906401000000009004565b50565b600081549050919050565b8082555050565b6123a080620003196000396000f3006080604052600436106100f1576000357c0100000000000000000000000000000000000000000000000000000000900463ffffffff1680630803fac0146100f65780631ecdf14d146101255780632914b9bd146101f457806332f0a3b51461029d57806335a672e6146102f45780635c272576146103275780637db6a4e41461035a5780637e7db6e1146104b557806380afdea8146105105780638129fc1c146105435780638b3dd7491461055a5780639d4941d814610585578063a1658fad146105c8578063a479e50814610674578063b66deb80146106cb578063d4aae0c41461070e578063de4796ed14610765575b600080fd5b34801561010257600080fd5b5061010b610794565b604051808215151515815260200191505060405180910390f35b34801561013157600080fd5b506101f2600480360381019080803573ffffffffffffffffffffffffffffffffffffffff169060200190929190803590602001908201803590602001908080601f0160208091040260200160405190810160405280939291908181526020018383808284378201915050505050509192919290803590602001908201803590602001908080601f01602080910402602001604051908101604052809392919081815260200183838082843782019150505050505091929192905050506107bf565b005b34801561020057600080fd5b5061025b600480360381019080803590602001908201803590602001908080601f0160208091040260200160405190810160405280939291908181526020018383808284378201915050505050509192919290505050610dd2565b604051808273ffffffffffffffffffffffffffffffffffffffff1673ffffffffffffffffffffffffffffffffffffffff16815260200191505060405180910390f35b3480156102a957600080fd5b506102b2610ef1565b604051808273ffffffffffffffffffffffffffffffffffffffff1673ffffffffffffffffffffffffffffffffffffffff16815260200191505060405180910390f35b34801561030057600080fd5b50610309610f9e565b60405180826000191660001916815260200191505060405180910390f35b34801561033357600080fd5b5061033c610fd7565b60405180826000191660001916815260200191505060405180910390f35b34801561036657600080fd5b5061039b600480360381019080803573ffffffffffffffffffffffffffffffffffffffff169060200190929190505050611010565b604051808473ffffffffffffffffffffffffffffffffffffffff1673ffffffffffffffffffffffffffffffffffffffff1681526020018060200180602001838103835285818151815260200191508051906020019080838360005b838110156104115780820151818401526020810190506103f6565b50505050905090810190601f16801561043e5780820380516001836020036101000a031916815260200191505b50838103825284818151815260200191508051906020019080838360005b8381101561047757808201518184015260208101905061045c565b50505050905090810190601f1680156104a45780820380516001836020036101000a031916815260200191505b509550505050505060405180910390f35b3480156104c157600080fd5b506104f6600480360381019080803573ffffffffffffffffffffffffffffffffffffffff169060200190929190505050611338565b604051808215151515815260200191505060405180910390f35b34801561051c57600080fd5b50610525611343565b60405180826000191660001916815260200191505060405180910390f35b34801561054f57600080fd5b5061055861137a565b005b34801561056657600080fd5b5061056f61146e565b6040518082815260200191505060405180910390f35b34801561059157600080fd5b506105c6600480360381019080803573ffffffffffffffffffffffffffffffffffffffff1690602001909291905050506114a5565b005b3480156105d457600080fd5b5061065a600480360381019080803573ffffffffffffffffffffffffffffffffffffffff1690602001909291908035600019169060200190929190803590602001908201803590602001908080602002602001604051908101604052809392919081815260200183836020028082843782019150505050505091929192905050506118d7565b604051808215151515815260200191505060405180910390f35b34801561068057600080fd5b50610689611ade565b604051808273ffffffffffffffffffffffffffffffffffffffff1673ffffffffffffffffffffffffffffffffffffffff16815260200191505060405180910390f35b3480156106d757600080fd5b5061070c600480360381019080803573ffffffffffffffffffffffffffffffffffffffff169060200190929190505050611bf9565b005b34801561071a57600080fd5b50610723612070565b604051808273ffffffffffffffffffffffffffffffffffffffff1673ffffffffffffffffffffffffffffffffffffffff16815260200191505060405180910390f35b34801561077157600080fd5b5061077a6120a7565b604051808215151515815260200191505060405180910390f35b60008061079f61146e565b9050600081141580156107b95750806107b66120d8565b10155b91505090565b600060405180807f4144445f454e5452595f524f4c45000000000000000000000000000000000000815250600e01905060405180910390206108323382600060405190808252806020026020018201604052801561082c5781602001602082028038833980820191505090505b506118d7565b6040805190810160405280600f81526020017f4150505f415554485f4641494c45440000000000000000000000000000000000815250901515610910576040517f08c379a00000000000000000000000000000000000000000000000000000000081526004018080602001828103825283818151815260200191508051906020019080838360005b838110156108d55780820151818401526020810190506108ba565b50505050905090810190601f1680156109025780820380516001836020036101000a031916815260200191505b509250505060405180910390fd5b5060008060008773ffffffffffffffffffffffffffffffffffffffff1673ffffffffffffffffffffffffffffffffffffffff16815260200190815260200160002060000160009054906101000a900473ffffffffffffffffffffffffffffffffffffffff1673ffffffffffffffffffffffffffffffffffffffff16141515610a00576040517f08c379a000000000000000000000000000000000000000000000000000000000815260040180806020018281038252601e8152602001807f656e74727920657869737473207769746820746861742061646472657373000081525060200191505060405180910390fd5b60016000856040516020018082805190602001908083835b602083101515610a3d5780518252602082019150602081019050602083039250610a18565b6001836020036101000a0380198251168184511680821785525050505050509050019150506040516020818303038152906040526040518082805190602001908083835b602083101515610aa65780518252602082019150602081019050602083039250610a81565b6001836020036101000a03801982511681845116808217855250505050505090500191505060405180910390206000191660001916815260200190815260200160002060009054906101000a900460ff16151515610b6c576040517f08c379a00000000000000000000000000000000000000000000000000000000081526004018080602001828103825260138152602001807f6e616d6520616c726561647920696e207573650000000000000000000000000081525060200191505060405180910390fd5b6000808673ffffffffffffffffffffffffffffffffffffffff1673ffffffffffffffffffffffffffffffffffffffff1681526020019081526020016000209150848260000160006101000a81548173ffffffffffffffffffffffffffffffffffffffff021916908373ffffffffffffffffffffffffffffffffffffffff16021790555083826001019080519060200190610c07929190612287565b5082826002019080519060200190610c20929190612287565b5060018060008060008973ffffffffffffffffffffffffffffffffffffffff1673ffffffffffffffffffffffffffffffffffffffff1681526020019081526020016000206001016040516020018082805460018160011615610100020316600290048015610cc55780601f10610ca3576101008083540402835291820191610cc5565b820191906000526020600020905b815481529060010190602001808311610cb1575b50509150506040516020818303038152906040526040518082805190602001908083835b602083101515610d0e5780518252602082019150602081019050602083039250610ce9565b6001836020036101000a03801982511681845116808217855250505050505090500191505060405180910390206000191660001916815260200190815260200160002060006101000a81548160ff0219169083151502179055507f2a25c8fc45c2647ced4f97a42649b36bc8d3c2c043420da19c2068a7c3f7e52085604051808273ffffffffffffffffffffffffffffffffffffffff1673ffffffffffffffffffffffffffffffffffffffff16815260200191505060405180910390a15050505050565b6000610ddc611ade565b73ffffffffffffffffffffffffffffffffffffffff166304bf2a7f836040518263ffffffff167c01000000000000000000000000000000000000000000000000000000000281526004018080602001828103825283818151815260200191508051906020019080838360005b83811015610e63578082015181840152602081019050610e48565b50505050905090810190601f168015610e905780820380516001836020036101000a031916815260200191505b5092505050602060405180830381600087803b158015610eaf57600080fd5b505af1158015610ec3573d6000803e3d6000fd5b505050506040513d6020811015610ed957600080fd5b81019080805190602001909291905050509050919050565b6000610efb612070565b73ffffffffffffffffffffffffffffffffffffffff166332f0a3b56040518163ffffffff167c0100000000000000000000000000000000000000000000000000000000028152600401602060405180830381600087803b158015610f5e57600080fd5b505af1158015610f72573d6000803e3d6000fd5b505050506040513d6020811015610f8857600080fd5b8101908080519060200190929190505050905090565b60405180807f52454d4f56455f454e5452595f524f4c450000000000000000000000000000008152506011019050604051809103902081565b60405180807f4144445f454e5452595f524f4c45000000000000000000000000000000000000815250600e019050604051809103902081565b600060608060008060008673ffffffffffffffffffffffffffffffffffffffff1673ffffffffffffffffffffffffffffffffffffffff1681526020019081526020016000209050600160008260010160405160200180828054600181600116156101000203166002900480156110bd5780601f1061109b5761010080835404028352918201916110bd565b820191906000526020600020905b8154815290600101906020018083116110a9575b50509150506040516020818303038152906040526040518082805190602001908083835b60208310151561110657805182526020820191506020810190506020830392506110e1565b6001836020036101000a03801982511681845116808217855250505050505090500191505060405180910390206000191660001916815260200190815260200160002060009054906101000a900460ff1615156111cb576040517f08c379a00000000000000000000000000000000000000000000000000000000081526004018080602001828103825260148152602001807f656e74727920646f6573206e6f7420657869737400000000000000000000000081525060200191505060405180910390fd5b8060000160009054906101000a900473ffffffffffffffffffffffffffffffffffffffff169350806001018054600181600116156101000203166002900480601f01602080910402602001604051908101604052809291908181526020018280546001816001161561010002031660029004801561128a5780601f1061125f5761010080835404028352916020019161128a565b820191906000526020600020905b81548152906001019060200180831161126d57829003601f168201915b50505050509250806002018054600181600116156101000203166002900480601f0160208091040260200160405190810160405280929190818152602001828054600181600116156101000203166002900480156113295780601f106112fe57610100808354040283529160200191611329565b820191906000526020600020905b81548152906001019060200180831161130c57829003601f168201915b50505050509150509193909250565b600060019050919050565b60006113757fd625496217aa6a3453eecb9c3489dc5a53e6c67b444329ea2b2cbc9ff547639b600102600019166120e0565b905090565b600061138461146e565b146040805190810160405280601881526020017f494e49545f414c52454144595f494e495449414c495a45440000000000000000815250901515611463576040517f08c379a00000000000000000000000000000000000000000000000000000000081526004018080602001828103825283818151815260200191508051906020019080838360005b8381101561142857808201518184015260208101905061140d565b50505050905090810190601f1680156114555780820380516001836020036101000a031916815260200191505b509250505060405180910390fd5b5061146c6120eb565b565b60006114a07febb05b386a8d34882b8711d156f463690983dc47815980fb82aeeff1aa43579e60010260001916612218565b905090565b6000806114b183611338565b6040805190810160405280601281526020017f5245434f5645525f444953414c4c4f574544000000000000000000000000000081525090151561158f576040517f08c379a00000000000000000000000000000000000000000000000000000000081526004018080602001828103825283818151815260200191508051906020019080838360005b83811015611554578082015181840152602081019050611539565b50505050905090810190601f1680156115815780820380516001836020036101000a031916815260200191505b509250505060405180910390fd5b50611598610ef1565b91506115a382612223565b6040805190810160405280601a81526020017f5245434f5645525f5641554c545f4e4f545f434f4e5452414354000000000000815250901515611681576040517f08c379a00000000000000000000000000000000000000000000000000000000081526004018080602001828103825283818151815260200191508051906020019080838360005b8381101561164657808201518184015260208101905061162b565b50505050905090810190601f1680156116735780820380516001836020036101000a031916815260200191505b509250505060405180910390fd5b50600073ffffffffffffffffffffffffffffffffffffffff168373ffffffffffffffffffffffffffffffffffffffff16141561171a578173ffffffffffffffffffffffffffffffffffffffff166108fc3073ffffffffffffffffffffffffffffffffffffffff16319081150290604051600060405180830381858888f19350505050158015611714573d6000803e3d6000fd5b506118d2565b8273ffffffffffffffffffffffffffffffffffffffff166370a08231306040518263ffffffff167c0100000000000000000000000000000000000000000000000000000000028152600401808273ffffffffffffffffffffffffffffffffffffffff1673ffffffffffffffffffffffffffffffffffffffff168152602001915050602060405180830381600087803b1580156117b557600080fd5b505af11580156117c9573d6000803e3d6000fd5b505050506040513d60208110156117df57600080fd5b810190808051906020019092919050505090508273ffffffffffffffffffffffffffffffffffffffff1663a9059cbb83836040518363ffffffff167c0100000000000000000000000000000000000000000000000000000000028152600401808373ffffffffffffffffffffffffffffffffffffffff1673ffffffffffffffffffffffffffffffffffffffff16815260200182815260200192505050602060405180830381600087803b15801561189557600080fd5b505af11580156118a9573d6000803e3d6000fd5b505050506040513d60208110156118bf57600080fd5b8101908080519060200190929190505050505b505050565b600080606060006118e6610794565b15156118f55760009350611ad4565b6118fd612070565b9250600073ffffffffffffffffffffffffffffffffffffffff168373ffffffffffffffffffffffffffffffffffffffff16141561193d5760009350611ad4565b602085510290508491508082528273ffffffffffffffffffffffffffffffffffffffff1663fdef9106883089866040518563ffffffff167c0100000000000000000000000000000000000000000000000000000000028152600401808573ffffffffffffffffffffffffffffffffffffffff1673ffffffffffffffffffffffffffffffffffffffff1681526020018473ffffffffffffffffffffffffffffffffffffffff1673ffffffffffffffffffffffffffffffffffffffff168152602001836000191660001916815260200180602001828103825283818151815260200191508051906020019080838360005b83811015611a47578082015181840152602081019050611a2c565b50505050905090810190601f168015611a745780820380516001836020036101000a031916815260200191505b5095505050505050602060405180830381600087803b158015611a9657600080fd5b505af1158015611aaa573d6000803e3d6000fd5b505050506040513d6020811015611ac057600080fd5b810190808051906020019092919050505093505b5050509392505050565b600080611ae9612070565b73ffffffffffffffffffffffffffffffffffffffff1663be00bbd87fd6f028ca0e8edb4a8c9757ca4fdccab25fa1e0317da1188108f7d2dee14902fb6001027fddbcfd564f642ab5627cf68b9b7d374fb4f8a36e941a75d89c87998cef03bd616001026040518363ffffffff167c0100000000000000000000000000000000000000000000000000000000028152600401808360001916600019168152602001826000191660001916815260200192505050602060405180830381600087803b158015611bb557600080fd5b505af1158015611bc9573d6000803e3d6000fd5b505050506040513d6020811015611bdf57600080fd5b810190808051906020019092919050505090508091505090565b60405180807f52454d4f56455f454e5452595f524f4c4500000000000000000000000000000081525060110190506040518091039020611c6a33826000604051908082528060200260200182016040528015611c645781602001602082028038833980820191505090505b506118d7565b6040805190810160405280600f81526020017f4150505f415554485f4641494c45440000000000000000000000000000000000815250901515611d48576040517f08c379a00000000000000000000000000000000000000000000000000000000081526004018080602001828103825283818151815260200191508051906020019080838360005b83811015611d0d578082015181840152602081019050611cf2565b50505050905090810190601f168015611d3a5780820380516001836020036101000a031916815260200191505b509250505060405180910390fd5b5060008060008473ffffffffffffffffffffffffffffffffffffffff1673ffffffffffffffffffffffffffffffffffffffff16815260200190815260200160002060000160009054906101000a900473ffffffffffffffffffffffffffffffffffffffff1673ffffffffffffffffffffffffffffffffffffffff1614151515611e39576040517f08c379a00000000000000000000000000000000000000000000000000000000081526004018080602001828103825260148152602001807f656e74727920646f6573206e6f7420657869737400000000000000000000000081525060200191505060405180910390fd5b6000600160008060008673ffffffffffffffffffffffffffffffffffffffff1673ffffffffffffffffffffffffffffffffffffffff1681526020019081526020016000206001016040516020018082805460018160011615610100020316600290048015611ede5780601f10611ebc576101008083540402835291820191611ede565b820191906000526020600020905b815481529060010190602001808311611eca575b50509150506040516020818303038152906040526040518082805190602001908083835b602083101515611f275780518252602082019150602081019050602083039250611f02565b6001836020036101000a03801982511681845116808217855250505050505090500191505060405180910390206000191660001916815260200190815260200160002060006101000a81548160ff0219169083151502179055506000808373ffffffffffffffffffffffffffffffffffffffff1673ffffffffffffffffffffffffffffffffffffffff168152602001908152602001600020600080820160006101000a81549073ffffffffffffffffffffffffffffffffffffffff0219169055600182016000611ff79190612307565b6002820160006120079190612307565b50507f35df0cc22f4745995f228e5646161436865335a8d710d5c55137ba94d9d8337782604051808273ffffffffffffffffffffffffffffffffffffffff1673ffffffffffffffffffffffffffffffffffffffff16815260200191505060405180910390a15050565b60006120a27f4172f0f7d2289153072b0a6ca36959e0cbe2efc3afe50fc81636caa96338137b60010260001916612275565b905090565b60007fffffffffffffffffffffffffffffffffffffffffffffffffffffffffffffffff6120d261146e565b14905090565b600043905090565b600081549050919050565b60006120f561146e565b146040805190810160405280601881526020017f494e49545f414c52454144595f494e495449414c495a454400000000000000008152509015156121d4576040517f08c379a00000000000000000000000000000000000000000000000000000000081526004018080602001828103825283818151815260200191508051906020019080838360005b8381101561219957808201518184015260208101905061217e565b50505050905090810190601f1680156121c65780820380516001836020036101000a031916815260200191505b509250505060405180910390fd5b506122166121e06120d8565b7febb05b386a8d34882b8711d156f463690983dc47815980fb82aeeff1aa43579e6001026000191661228090919063ffffffff16565b565b600081549050919050565b600080600073ffffffffffffffffffffffffffffffffffffffff168373ffffffffffffffffffffffffffffffffffffffff161415612264576000915061226f565b823b90506000811191505b50919050565b600081549050919050565b8082555050565b828054600181600116156101000203166002900490600052602060002090601f016020900481019282601f106122c857805160ff19168380011785556122f6565b828001600101855582156122f6579182015b828111156122f55782518255916020019190600101906122da565b5b509050612303919061234f565b5090565b50805460018160011615610100020316600290046000825580601f1061232d575061234c565b601f01602090049060005260206000209081019061234b919061234f565b5b50565b61237191905b8082111561236d576000816000905550600101612355565b5090565b905600a165627a7a72305820f0225e3753a07fac61aafea0e296fa88ab826e3ba701e58562d3fb8dee8eee760029",
  "source": "pragma solidity ^0.4.24;\n\nimport \"@aragon/os/contracts/apps/AragonApp.sol\";\n\n\n/*******************************************************************************\n    Copyright 2018, That Planning Suite\n\n    This program is free software: you can redistribute it and/or modify\n    it under the terms of the GNU General Public License as published by\n    the Free Software Foundation, either version 3 of the License, or\n    (at your option) any later version.\n\n    This program is distributed in the hope that it will be useful,\n    but WITHOUT ANY WARRANTY; without even the implied warranty of\n    MERCHANTABILITY or FITNESS FOR A PARTICULAR PURPOSE.  See the\n    GNU General Public License for more details.\n\n    You should have received a copy of the GNU General Public License\n    along with this program.  If not, see <http://www.gnu.org/licenses/>.\n*******************************************************************************/\n/*******************************************************************************\n* @title AddressBook Contract\n* @author Sean Marquez\n* @dev This contract defines an address book (registry) that allows the\n* association of a human-readable string to a type, and ethereum address.\n*******************************************************************************/\ncontract AddressBook is AragonApp {\n    function initialize() external onlyInit {\n        initialized();\n    }\n\n    struct Entry {\n        address entryAddress;\n        string name;\n        string entryType;\n    }\n\n    // The entries in the registry.\n    mapping(address => Entry) entries;\n    mapping(bytes32 => bool) nameUsed;\n\n    // Fired when an entry is added to the registry.\n    event EntryAdded(address addr);\n    // Fired when an entry is removed from the registry.\n    event EntryRemoved(address addr);\n\n    bytes32 public constant ADD_ENTRY_ROLE = keccak256(\"ADD_ENTRY_ROLE\");\n    bytes32 public constant REMOVE_ENTRY_ROLE = keccak256(\"REMOVE_ENTRY_ROLE\");\n\n    /**\n     * @notice Add entity '`_name`' with the address '`_addr`' to the registry.\n     * @param _addr The address of the entry to add to the registry\n     * @param _name The name of the entry to add to the registry\n     * @param _entryType The type of the entry to add to the registry\n     */\n    function addEntry(\n        address _addr,\n        string _name,\n        string _entryType\n    ) public auth(ADD_ENTRY_ROLE)\n    {\n        require(entries[_addr].entryAddress == 0, \"entry exists with that address\");\n        require(!nameUsed[keccak256(abi.encodePacked(_name))], \"name already in use\");\n\n        Entry storage entry = entries[_addr];\n        entry.entryAddress = _addr;\n        entry.name = _name;\n        entry.entryType = _entryType;\n\n        nameUsed[keccak256(abi.encodePacked(entries[_addr].name))] = true;\n\n        emit EntryAdded(_addr);\n    }\n\n    /**\n     * @notice Remove entity with address '`_addr`' from the registry.\n     * @param _addr The ID of the entry to remove\n     */\n    function removeEntry(\n        address _addr\n    ) public auth(REMOVE_ENTRY_ROLE)\n    {\n        require(entries[_addr].entryAddress != 0, \"entry does not exist\");\n        // The below assertion will always be shadowed by the above requirement.\n        // Because there is no way for it to fail independently of this requirement\n        // it is unnecessary\n        // assert(nameUsed[keccak256(abi.encodePacked(entries[_addr].name))]); // the name MUST be used\n        nameUsed[keccak256(abi.encodePacked(entries[_addr].name))] = false;\n        delete entries[_addr];\n        emit EntryRemoved(_addr);\n    }\n\n    /**\n     * Get an entry from the registry.\n     * @param _addr The ID of the entry to get\n     */\n    function getEntry(\n        address _addr\n    ) public view returns (address _entryAddress, string _name, string _entryType)\n    {\n        Entry storage entry = entries[_addr];\n        require(nameUsed[keccak256(abi.encodePacked(entry.name))], \"entry does not exist\");\n\n        _entryAddress = entry.entryAddress;\n        _name = entry.name;\n        _entryType = entry.entryType;\n    }\n}\n",
  "sourcePath": "/home/quazia/Code/planning-app/apps/address-book/contracts/AddressBook.sol",
  "compiler": {
    "name": "solc",
    "version": "0.4.24+commit.e67f0147.Emscripten.clang"
  },
  "schemaVersion": "2.0.1",
  "updatedAt": "2019-03-20T21:13:39.911Z"
}