{
  "contractName": "Allocations",
  "abi": [
    {
      "constant": true,
      "inputs": [],
      "name": "EXECUTE_PAYOUT_ROLE",
      "outputs": [
        {
          "name": "",
          "type": "bytes32"
        }
      ],
      "payable": false,
      "stateMutability": "view",
      "type": "function"
    },
    {
      "constant": true,
      "inputs": [],
      "name": "hasInitialized",
      "outputs": [
        {
          "name": "",
          "type": "bool"
        }
      ],
      "payable": false,
      "stateMutability": "view",
      "type": "function"
    },
    {
      "constant": true,
      "inputs": [
        {
          "name": "_script",
          "type": "bytes"
        }
      ],
      "name": "getEVMScriptExecutor",
      "outputs": [
        {
          "name": "",
          "type": "address"
        }
      ],
      "payable": false,
      "stateMutability": "view",
      "type": "function"
    },
    {
      "constant": true,
      "inputs": [],
      "name": "getRecoveryVault",
      "outputs": [
        {
          "name": "",
          "type": "address"
        }
      ],
      "payable": false,
      "stateMutability": "view",
      "type": "function"
    },
    {
      "constant": true,
      "inputs": [],
      "name": "EVMSCRIPT_REGISTRY_APP_ID",
      "outputs": [
        {
          "name": "",
          "type": "bytes32"
        }
      ],
      "payable": false,
      "stateMutability": "view",
      "type": "function"
    },
    {
      "constant": true,
      "inputs": [
        {
          "name": "",
          "type": "address"
        }
      ],
      "name": "allowRecoverability",
      "outputs": [
        {
          "name": "",
          "type": "bool"
        }
      ],
      "payable": false,
      "stateMutability": "view",
      "type": "function"
    },
    {
      "constant": true,
      "inputs": [],
      "name": "appId",
      "outputs": [
        {
          "name": "",
          "type": "bytes32"
        }
      ],
      "payable": false,
      "stateMutability": "view",
      "type": "function"
    },
    {
      "constant": true,
      "inputs": [],
      "name": "ETH",
      "outputs": [
        {
          "name": "",
          "type": "address"
        }
      ],
      "payable": false,
      "stateMutability": "view",
      "type": "function"
    },
    {
      "constant": true,
      "inputs": [],
      "name": "getInitializationBlock",
      "outputs": [
        {
          "name": "",
          "type": "uint256"
        }
      ],
      "payable": false,
      "stateMutability": "view",
      "type": "function"
    },
    {
      "constant": false,
      "inputs": [
        {
          "name": "_token",
          "type": "address"
        }
      ],
      "name": "transferToVault",
      "outputs": [],
      "payable": false,
      "stateMutability": "nonpayable",
      "type": "function"
    },
    {
      "constant": true,
      "inputs": [
        {
          "name": "_sender",
          "type": "address"
        },
        {
          "name": "_role",
          "type": "bytes32"
        },
        {
          "name": "_params",
          "type": "uint256[]"
        }
      ],
      "name": "canPerform",
      "outputs": [
        {
          "name": "",
          "type": "bool"
        }
      ],
      "payable": false,
      "stateMutability": "view",
      "type": "function"
    },
    {
      "constant": true,
      "inputs": [],
      "name": "getEVMScriptRegistry",
      "outputs": [
        {
          "name": "",
          "type": "address"
        }
      ],
      "payable": false,
      "stateMutability": "view",
      "type": "function"
    },
    {
      "constant": true,
      "inputs": [],
      "name": "kernel",
      "outputs": [
        {
          "name": "",
          "type": "address"
        }
      ],
      "payable": false,
      "stateMutability": "view",
      "type": "function"
    },
    {
      "constant": true,
      "inputs": [],
      "name": "isPetrified",
      "outputs": [
        {
          "name": "",
          "type": "bool"
        }
      ],
      "payable": false,
      "stateMutability": "view",
      "type": "function"
    },
    {
      "constant": true,
      "inputs": [],
      "name": "START_PAYOUT_ROLE",
      "outputs": [
        {
          "name": "",
          "type": "bytes32"
        }
      ],
      "payable": false,
      "stateMutability": "view",
      "type": "function"
    },
    {
      "constant": true,
      "inputs": [],
      "name": "addressBook",
      "outputs": [
        {
          "name": "",
          "type": "address"
        }
      ],
      "payable": false,
      "stateMutability": "view",
      "type": "function"
    },
    {
      "constant": true,
      "inputs": [],
      "name": "SET_DISTRIBUTION_ROLE",
      "outputs": [
        {
          "name": "",
          "type": "bytes32"
        }
      ],
      "payable": false,
      "stateMutability": "view",
      "type": "function"
    },
    {
      "payable": true,
      "stateMutability": "payable",
      "type": "fallback"
    },
    {
      "anonymous": false,
      "inputs": [
        {
          "indexed": false,
          "name": "payoutId",
          "type": "uint256"
        }
      ],
      "name": "PayoutExecuted",
      "type": "event"
    },
    {
      "anonymous": false,
      "inputs": [
        {
          "indexed": false,
          "name": "accountId",
          "type": "uint256"
        }
      ],
      "name": "NewAccount",
      "type": "event"
    },
    {
      "anonymous": false,
      "inputs": [
        {
          "indexed": false,
          "name": "accountId",
          "type": "uint256"
        }
      ],
      "name": "FundAccount",
      "type": "event"
    },
    {
      "anonymous": false,
      "inputs": [
        {
          "indexed": false,
          "name": "payoutId",
          "type": "uint256"
        },
        {
          "indexed": false,
          "name": "amount",
          "type": "uint256"
        }
      ],
      "name": "SetDistribution",
      "type": "event"
    },
    {
      "anonymous": false,
      "inputs": [
        {
          "indexed": true,
          "name": "executor",
          "type": "address"
        },
        {
          "indexed": false,
          "name": "script",
          "type": "bytes"
        },
        {
          "indexed": false,
          "name": "input",
          "type": "bytes"
        },
        {
          "indexed": false,
          "name": "returnData",
          "type": "bytes"
        }
      ],
      "name": "ScriptResult",
      "type": "event"
    },
    {
      "constant": false,
      "inputs": [
        {
          "name": "_addressBook",
          "type": "address"
        }
      ],
      "name": "initialize",
      "outputs": [],
      "payable": false,
      "stateMutability": "nonpayable",
      "type": "function"
    },
    {
      "constant": false,
      "inputs": [
        {
          "name": "_metadata",
          "type": "string"
        },
        {
          "name": "_limit",
          "type": "uint256"
        },
        {
          "name": "_token",
          "type": "address"
        }
      ],
      "name": "newPayout",
      "outputs": [
        {
          "name": "payoutId",
          "type": "uint256"
        }
      ],
      "payable": false,
      "stateMutability": "nonpayable",
      "type": "function"
    },
    {
      "constant": false,
      "inputs": [
        {
          "name": "_candidateAddresses",
          "type": "address[]"
        },
        {
          "name": "_supports",
          "type": "uint256[]"
        },
        {
          "name": "",
          "type": "uint256[]"
        },
        {
          "name": "",
          "type": "string"
        },
        {
          "name": "",
          "type": "uint256[]"
        },
        {
          "name": "",
          "type": "uint256[]"
        },
        {
          "name": "_payoutId",
          "type": "uint256"
        },
        {
          "name": "_informational",
          "type": "bool"
        },
        {
          "name": "_recurring",
          "type": "bool"
        },
        {
          "name": "_period",
          "type": "uint256"
        },
        {
          "name": "_amount",
          "type": "uint256"
        }
      ],
      "name": "setDistribution",
      "outputs": [],
      "payable": true,
      "stateMutability": "payable",
      "type": "function"
    },
    {
      "constant": false,
      "inputs": [
        {
          "name": "id",
          "type": "uint256"
        }
      ],
      "name": "fund",
      "outputs": [],
      "payable": true,
      "stateMutability": "payable",
      "type": "function"
    },
    {
      "constant": false,
      "inputs": [
        {
          "name": "_payoutId",
          "type": "uint256"
        }
      ],
      "name": "runPayout",
      "outputs": [
        {
          "name": "success",
          "type": "bool"
        }
      ],
      "payable": true,
      "stateMutability": "payable",
      "type": "function"
    },
    {
      "constant": true,
      "inputs": [
        {
          "name": "_payoutId",
          "type": "uint256"
        }
      ],
      "name": "getPayout",
      "outputs": [
        {
          "name": "balance",
          "type": "uint256"
        },
        {
          "name": "limit",
          "type": "uint256"
        },
        {
          "name": "metadata",
          "type": "string"
        },
        {
          "name": "token",
          "type": "address"
        },
        {
          "name": "proxy",
          "type": "address"
        },
        {
          "name": "amount",
          "type": "uint256"
        }
      ],
      "payable": false,
      "stateMutability": "view",
      "type": "function"
    },
    {
      "constant": true,
      "inputs": [
        {
          "name": "_payoutId",
          "type": "uint256"
        }
      ],
      "name": "getNumberOfCandidates",
      "outputs": [
        {
          "name": "numCandidates",
          "type": "uint256"
        }
      ],
      "payable": false,
      "stateMutability": "view",
      "type": "function"
    },
    {
      "constant": true,
      "inputs": [
        {
          "name": "_payoutId",
          "type": "uint256"
        },
        {
          "name": "idx",
          "type": "uint256"
        }
      ],
      "name": "getPayoutDistributionValue",
      "outputs": [
        {
          "name": "supports",
          "type": "uint256"
        }
      ],
      "payable": false,
      "stateMutability": "view",
      "type": "function"
    }
  ],
  "bytecode": "0x60806040526200001d62000023640100000000026401000000009004565b6200015b565b60006200003e62000087640100000000026401000000009004565b1415156200004b57600080fd5b620000857fffffffffffffffffffffffffffffffffffffffffffffffffffffffffffffffff620000d4640100000000026401000000009004565b565b6000620000cf7febb05b386a8d34882b8711d156f463690983dc47815980fb82aeeff1aa43579e60010260001916620001496401000000000262002128176401000000009004565b905090565b6000620000ef62000087640100000000026401000000009004565b141515620000fc57600080fd5b62000146817febb05b386a8d34882b8711d156f463690983dc47815980fb82aeeff1aa43579e60010260001916620001546401000000000262002251179091906401000000009004565b50565b600081549050919050565b8082555050565b6127d5806200016b6000396000f300608060405260043610610149576000357c0100000000000000000000000000000000000000000000000000000000900463ffffffff1680630648bb471461014e5780630803fac0146101815780632914b9bd146101b057806332f0a3b5146102595780633e56f9f9146102b05780633fe073db146103d157806360b1e0571461041c57806363216e441461044f57806374c454af146104905780637a898217146105095780637e7db6e1146106ea57806380afdea8146107455780638322fff2146107785780638b3dd749146107cf5780639d4941d8146107fa578063a1658fad1461083d578063a479e508146108e9578063b4f36fb914610940578063c4d66de814610978578063ca1d209d146109bb578063d4aae0c4146109db578063de4796ed14610a32578063e212029414610a61578063f5887cdd14610a94578063fe3b501214610aeb575b600080fd5b34801561015a57600080fd5b50610163610b1e565b60405180826000191660001916815260200191505060405180910390f35b34801561018d57600080fd5b50610196610b57565b604051808215151515815260200191505060405180910390f35b3480156101bc57600080fd5b50610217600480360381019080803590602001908201803590602001908080601f0160208091040260200160405190810160405280939291908181526020018383808284378201915050505050509192919290505050610b82565b604051808273ffffffffffffffffffffffffffffffffffffffff1673ffffffffffffffffffffffffffffffffffffffff16815260200191505060405180910390f35b34801561026557600080fd5b5061026e610ca1565b604051808273ffffffffffffffffffffffffffffffffffffffff1673ffffffffffffffffffffffffffffffffffffffff16815260200191505060405180910390f35b3480156102bc57600080fd5b506102db60048036038101908080359060200190929190505050610d90565b60405180878152602001868152602001806020018573ffffffffffffffffffffffffffffffffffffffff1673ffffffffffffffffffffffffffffffffffffffff1681526020018473ffffffffffffffffffffffffffffffffffffffff1673ffffffffffffffffffffffffffffffffffffffff168152602001838152602001828103825286818151815260200191508051906020019080838360005b83811015610391578082015181840152602081019050610376565b50505050905090810190601f1680156103be5780820380516001836020036101000a031916815260200191505b5097505050505050505060405180910390f35b3480156103dd57600080fd5b506104066004803603810190808035906020019092919080359060200190929190505050610ec6565b6040518082815260200191505060405180910390f35b34801561042857600080fd5b50610431610f0d565b60405180826000191660001916815260200191505060405180910390f35b34801561045b57600080fd5b5061047a60048036038101908080359060200190929190505050610f34565b6040518082815260200191505060405180910390f35b34801561049c57600080fd5b506104f360048036038101908080359060200190820180359060200191909192939192939080359060200190929190803573ffffffffffffffffffffffffffffffffffffffff169060200190929190505050610f66565b6040518082815260200191505060405180910390f35b6106e8600480360381019080803590602001908201803590602001908080602002602001604051908101604052809392919081815260200183836020028082843782019150505050505091929192908035906020019082018035906020019080806020026020016040519081016040528093929190818152602001838360200280828437820191505050505050919291929080359060200190820180359060200190808060200260200160405190810160405280939291908181526020018383602002808284378201915050505050509192919290803590602001908201803590602001908080601f01602080910402602001604051908101604052809392919081815260200183838082843782019150505050505091929192908035906020019082018035906020019080806020026020016040519081016040528093929190818152602001838360200280828437820191505050505050919291929080359060200190820180359060200190808060200260200160405190810160405280939291908181526020018383602002808284378201915050505050509192919290803590602001909291908035151590602001909291908035151590602001909291908035906020019092919080359060200190929190505050611184565b005b3480156106f657600080fd5b5061072b600480360381019080803573ffffffffffffffffffffffffffffffffffffffff169060200190929190505050611512565b604051808215151515815260200191505060405180910390f35b34801561075157600080fd5b5061075a61151d565b60405180826000191660001916815260200191505060405180910390f35b34801561078457600080fd5b5061078d611554565b604051808273ffffffffffffffffffffffffffffffffffffffff1673ffffffffffffffffffffffffffffffffffffffff16815260200191505060405180910390f35b3480156107db57600080fd5b506107e4611559565b6040518082815260200191505060405180910390f35b34801561080657600080fd5b5061083b600480360381019080803573ffffffffffffffffffffffffffffffffffffffff169060200190929190505050611590565b005b34801561084957600080fd5b506108cf600480360381019080803573ffffffffffffffffffffffffffffffffffffffff16906020019092919080356000191690602001909291908035906020019082018035906020019080806020026020016040519081016040528093929190818152602001838360200280828437820191505050505050919291929050505061181a565b604051808215151515815260200191505060405180910390f35b3480156108f557600080fd5b506108fe611a2c565b604051808273ffffffffffffffffffffffffffffffffffffffff1673ffffffffffffffffffffffffffffffffffffffff16815260200191505060405180910390f35b61095e60048036038101908080359060200190929190505050611b47565b604051808215151515815260200191505060405180910390f35b34801561098457600080fd5b506109b9600480360381019080803573ffffffffffffffffffffffffffffffffffffffff169060200190929190505050611efb565b005b6109d960048036038101908080359060200190929190505050611f5c565b005b3480156109e757600080fd5b506109f0611ff5565b604051808273ffffffffffffffffffffffffffffffffffffffff1673ffffffffffffffffffffffffffffffffffffffff16815260200191505060405180910390f35b348015610a3e57600080fd5b50610a4761202c565b604051808215151515815260200191505060405180910390f35b348015610a6d57600080fd5b50610a7661205d565b60405180826000191660001916815260200191505060405180910390f35b348015610aa057600080fd5b50610aa9612096565b604051808273ffffffffffffffffffffffffffffffffffffffff1673ffffffffffffffffffffffffffffffffffffffff16815260200191505060405180910390f35b348015610af757600080fd5b50610b006120bb565b60405180826000191660001916815260200191505060405180910390f35b60405180807f455845435554455f5041594f55545f524f4c45000000000000000000000000008152506013019050604051809103902081565b600080610b62611559565b905060008114158015610b7c575080610b796120f4565b10155b91505090565b6000610b8c611a2c565b73ffffffffffffffffffffffffffffffffffffffff166304bf2a7f836040518263ffffffff167c01000000000000000000000000000000000000000000000000000000000281526004018080602001828103825283818151815260200191508051906020019080838360005b83811015610c13578082015181840152602081019050610bf8565b50505050905090810190601f168015610c405780820380516001836020036101000a031916815260200191505b5092505050602060405180830381600087803b158015610c5f57600080fd5b505af1158015610c73573d6000803e3d6000fd5b505050506040513d6020811015610c8957600080fd5b81019080805190602001909291905050509050919050565b60008073ffffffffffffffffffffffffffffffffffffffff16610cc2611ff5565b73ffffffffffffffffffffffffffffffffffffffff1614151515610ce557600080fd5b610ced611ff5565b73ffffffffffffffffffffffffffffffffffffffff166332f0a3b56040518163ffffffff167c0100000000000000000000000000000000000000000000000000000000028152600401602060405180830381600087803b158015610d5057600080fd5b505af1158015610d64573d6000803e3d6000fd5b505050506040513d6020811015610d7a57600080fd5b8101908080519060200190929190505050905090565b6000806060600080600080600188815481101515610daa57fe5b90600052602060002090600c020190508060040154955080600701549650806003018054600181600116156101000203166002900480601f016020809104026020016040519081016040528092919081815260200182805460018160011615610100020316600290048015610e605780601f10610e3557610100808354040283529160200191610e60565b820191906000526020600020905b815481529060010190602001808311610e4357829003601f168201915b5050505050945080600a0160019054906101000a900473ffffffffffffffffffffffffffffffffffffffff16935080600b0160009054906101000a900473ffffffffffffffffffffffffffffffffffffffff169250806008015491505091939550919395565b600080600184815481101515610ed857fe5b90600052602060002090600c020190508060020183815481101515610ef957fe5b906000526020600020015491505092915050565b7fddbcfd564f642ab5627cf68b9b7d374fb4f8a36e941a75d89c87998cef03bd6160010281565b600080600183815481101515610f4657fe5b90600052602060002090600c020190508060020180549050915050919050565b6000806000610f73610b57565b1515610f7e57600080fd5b60405180807f53544152545f5041594f55545f524f4c4500000000000000000000000000000081525060110190506040518091039020610fef33826000604051908082528060200260200182016040528015610fe95781602001602082028038833980820191505090505b5061181a565b1515610ffa57600080fd5b6001805480919060010161100e9190612258565b935060018481548110151561101f57fe5b90600052602060002090600c02019250878784600301919061104292919061228a565b508583600401819055508483600a0160016101000a81548173ffffffffffffffffffffffffffffffffffffffff021916908373ffffffffffffffffffffffffffffffffffffffff1602179055506000836007018190555083306110a361230a565b808381526020018273ffffffffffffffffffffffffffffffffffffffff1673ffffffffffffffffffffffffffffffffffffffff16815260200192505050604051809103906000f0801580156110fc573d6000803e3d6000fd5b5091508183600b0160006101000a81548173ffffffffffffffffffffffffffffffffffffffff021916908373ffffffffffffffffffffffffffffffffffffffff1602179055507f4dd40a488a410554835be3689f2fffba01db70ca79a6e01779722b8171968727846040518082815260200191505060405180910390a1505050949350505050565b600061118e610b57565b151561119957600080fd5b60405180807f5345545f444953545249425554494f4e5f524f4c4500000000000000000000008152506015019050604051809103902061120a338260006040519080825280602002602001820160405280156112045781602001602082028038833980820191505090505b5061181a565b151561121557600080fd5b60018781548110151561122457fe5b90600052602060002090600c020191508c82600101908051906020019061124c92919061231a565b508160040154831115151561126057600080fd5b858260050160016101000a81548160ff021916908315150217905550848260050160006101000a81548160ff0219169083151502179055508515156113b4576112b63483600701546120fc90919063ffffffff16565b5082826007015410151515611333576040517f08c379a000000000000000000000000000000000000000000000000000000000815260040180806020018281038252601a8152602001807f7061796f7574206163636f756e7420756e64657266756e64656400000000000081525060200191505060405180910390fd5b828260040154101515156113af576040517f08c379a000000000000000000000000000000000000000000000000000000000815260040180806020018281038252601f8152602001807f7061796f7574206c696d697420746f6f206c6f7720666f7220616d6f756e740081525060200191505060405180910390fd5b61145d565b600034141515611452576040517f08c379a00000000000000000000000000000000000000000000000000000000081526004018080602001828103825260248152602001807f63616e6e6f742066756e6420696e666f726d6174696f6e616c20616c6c6f636181526020017f74696f6e0000000000000000000000000000000000000000000000000000000081525060400191505060405180910390fd5b600082600701819055505b841561147a57838260060181905550428260090181905550611485565b600082600601819055505b600182600a0160006101000a81548160ff0219169083151502179055508b8260020190805190602001906114ba9291906123a4565b508282600801819055507fb3351d99c1f746d4a0198cc4948ee6a0ad495e662d9866ab8684521caf00bb988784604051808381526020018281526020019250505060405180910390a150505050505050505050505050565b600060019050919050565b600061154f7fd625496217aa6a3453eecb9c3489dc5a53e6c67b444329ea2b2cbc9ff547639b6001026000191661211d565b905090565b600081565b600061158b7febb05b386a8d34882b8711d156f463690983dc47815980fb82aeeff1aa43579e60010260001916612128565b905090565b60008061159c83611512565b15156115a757600080fd5b6115af610ca1565b91506115ba82612133565b15156115c557600080fd5b600073ffffffffffffffffffffffffffffffffffffffff168373ffffffffffffffffffffffffffffffffffffffff16141561165d578173ffffffffffffffffffffffffffffffffffffffff166108fc3073ffffffffffffffffffffffffffffffffffffffff16319081150290604051600060405180830381858888f19350505050158015611657573d6000803e3d6000fd5b50611815565b8273ffffffffffffffffffffffffffffffffffffffff166370a08231306040518263ffffffff167c0100000000000000000000000000000000000000000000000000000000028152600401808273ffffffffffffffffffffffffffffffffffffffff1673ffffffffffffffffffffffffffffffffffffffff168152602001915050602060405180830381600087803b1580156116f857600080fd5b505af115801561170c573d6000803e3d6000fd5b505050506040513d602081101561172257600080fd5b810190808051906020019092919050505090508273ffffffffffffffffffffffffffffffffffffffff1663a9059cbb83836040518363ffffffff167c0100000000000000000000000000000000000000000000000000000000028152600401808373ffffffffffffffffffffffffffffffffffffffff1673ffffffffffffffffffffffffffffffffffffffff16815260200182815260200192505050602060405180830381600087803b1580156117d857600080fd5b505af11580156117ec573d6000803e3d6000fd5b505050506040513d602081101561180257600080fd5b8101908080519060200190929190505050505b505050565b60008060606000611829610b57565b15156118385760009350611a22565b611840611ff5565b9250600073ffffffffffffffffffffffffffffffffffffffff168373ffffffffffffffffffffffffffffffffffffffff1614156118805760009350611a22565b60008551111561189857602085510290508491508082525b8273ffffffffffffffffffffffffffffffffffffffff1663fdef9106883089866040518563ffffffff167c0100000000000000000000000000000000000000000000000000000000028152600401808573ffffffffffffffffffffffffffffffffffffffff1673ffffffffffffffffffffffffffffffffffffffff1681526020018473ffffffffffffffffffffffffffffffffffffffff1673ffffffffffffffffffffffffffffffffffffffff168152602001836000191660001916815260200180602001828103825283818151815260200191508051906020019080838360005b8381101561199557808201518184015260208101905061197a565b50505050905090810190601f1680156119c25780820380516001836020036101000a031916815260200191505b5095505050505050602060405180830381600087803b1580156119e457600080fd5b505af11580156119f8573d6000803e3d6000fd5b505050506040513d6020811015611a0e57600080fd5b810190808051906020019092919050505093505b5050509392505050565b600080611a37611ff5565b73ffffffffffffffffffffffffffffffffffffffff1663be00bbd87fd6f028ca0e8edb4a8c9757ca4fdccab25fa1e0317da1188108f7d2dee14902fb6001027fddbcfd564f642ab5627cf68b9b7d374fb4f8a36e941a75d89c87998cef03bd616001026040518363ffffffff167c0100000000000000000000000000000000000000000000000000000000028152600401808360001916600019168152602001826000191660001916815260200192505050602060405180830381600087803b158015611b0357600080fd5b505af1158015611b17573d6000803e3d6000fd5b505050506040513d6020811015611b2d57600080fd5b810190808051906020019092919050505090508091505090565b600080600080600080611b58610b57565b1515611b6357600080fd5b600187815481101515611b7257fe5b90600052602060002090600c02019450600091505b8460020180549050821015611bc3578460020182815481101515611ba757fe5b9060005260206000200154830192508180600101925050611b87565b8460050160019054906101000a900460ff16151515611c4a576040517f08c379a000000000000000000000000000000000000000000000000000000000815260040180806020018281038252601f8152602001807f496e666f726d6174696f6e616c207061796f75747320646f6e27742072756e0081525060200191505060405180910390fd5b84600a0160009054906101000a900460ff161515611cf6576040517f08c379a00000000000000000000000000000000000000000000000000000000081526004018080602001828103825260248152602001807f736574446973747269627574696f6e206d7573742062652063616c6c6564206681526020017f697273740000000000000000000000000000000000000000000000000000000081525060400191505060405180910390fd5b8460050160009054906101000a900460ff1615611daf57611d28856006015486600901546120fc90919063ffffffff16565b90504281101515611da1576040517f08c379a000000000000000000000000000000000000000000000000000000000815260040180806020018281038252601e8152602001807f7061796f757420706572696f64206e6f74207965742066696e6973686564000081525060200191505060405180910390fd5b808560090181905550611dcd565b600085600a0160006101000a81548160ff0219169083151502179055505b611de483866008015461218590919063ffffffff16565b9350600091505b8460010180549050821015611eb6578460010182815481101515611e0b57fe5b9060005260206000200160009054906101000a900473ffffffffffffffffffffffffffffffffffffffff1673ffffffffffffffffffffffffffffffffffffffff166108fc611e7d868860020186815481101515611e6457fe5b90600052602060002001546121af90919063ffffffff16565b9081150290604051600060405180830381858888f19350505050158015611ea8573d6000803e3d6000fd5b508180600101925050611deb565b600195507f921111cf8da02f50d459c9db80510eeb1dc2443e86b4a9da3f5e4c8b1e857ec2876040518082815260200191505060405180910390a15050505050919050565b6000611f05611559565b141515611f1157600080fd5b806000806101000a81548173ffffffffffffffffffffffffffffffffffffffff021916908373ffffffffffffffffffffffffffffffffffffffff160217905550611f596121ed565b50565b6000600182815481101515611f6d57fe5b90600052602060002090600c020190508060050160019054906101000a900460ff16151515611f9b57600080fd5b611fb23482600701546120fc90919063ffffffff16565b81600701819055507f40db677cfdb60d4c50bee042739bcdc73f449a0247722b722cf4a2388a21c787826040518082815260200191505060405180910390a15050565b60006120277f4172f0f7d2289153072b0a6ca36959e0cbe2efc3afe50fc81636caa96338137b60010260001916612246565b905090565b60007fffffffffffffffffffffffffffffffffffffffffffffffffffffffffffffffff612057611559565b14905090565b60405180807f53544152545f5041594f55545f524f4c450000000000000000000000000000008152506011019050604051809103902081565b6000809054906101000a900473ffffffffffffffffffffffffffffffffffffffff1681565b60405180807f5345545f444953545249425554494f4e5f524f4c4500000000000000000000008152506015019050604051809103902081565b600043905090565b600080828401905083811015151561211357600080fd5b8091505092915050565b600081549050919050565b600081549050919050565b600080600073ffffffffffffffffffffffffffffffffffffffff168373ffffffffffffffffffffffffffffffffffffffff161415612174576000915061217f565b823b90506000811191505b50919050565b60008060008311151561219757600080fd5b82848115156121a257fe5b0490508091505092915050565b60008060008414156121c457600091506121e6565b82840290508284828115156121d557fe5b041415156121e257600080fd5b8091505b5092915050565b60006121f7611559565b14151561220357600080fd5b61224461220e6120f4565b7febb05b386a8d34882b8711d156f463690983dc47815980fb82aeeff1aa43579e6001026000191661225190919063ffffffff16565b565b600081549050919050565b8082555050565b81548183558181111561228557600c0281600c02836000526020600020918201910161228491906123f1565b5b505050565b828054600181600116156101000203166002900490600052602060002090601f016020900481019282601f106122cb57803560ff19168380011785556122f9565b828001600101855582156122f9579182015b828111156122f85782358255916020019190600101906122dd565b5b5090506123069190612502565b5090565b60405161016f8061263b83390190565b828054828255906000526020600020908101928215612393579160200282015b828111156123925782518260006101000a81548173ffffffffffffffffffffffffffffffffffffffff021916908373ffffffffffffffffffffffffffffffffffffffff1602179055509160200191906001019061233a565b5b5090506123a09190612527565b5090565b8280548282559060005260206000209081019282156123e0579160200282015b828111156123df5782518255916020019190600101906123c4565b5b5090506123ed9190612502565b5090565b6124ff91905b808211156124fb5760008082016000612410919061256a565b600182016000612420919061258b565b60028201600061243091906125ac565b60038201600061244091906125cd565b60048201600090556005820160006101000a81549060ff02191690556005820160016101000a81549060ff02191690556006820160009055600782016000905560088201600090556009820160009055600a820160006101000a81549060ff0219169055600a820160016101000a81549073ffffffffffffffffffffffffffffffffffffffff0219169055600b820160006101000a81549073ffffffffffffffffffffffffffffffffffffffff021916905550600c016123f7565b5090565b90565b61252491905b80821115612520576000816000905550600101612508565b5090565b90565b61256791905b8082111561256357600081816101000a81549073ffffffffffffffffffffffffffffffffffffffff02191690555060010161252d565b5090565b90565b50805460008255906000526020600020908101906125889190612615565b50565b50805460008255906000526020600020908101906125a99190612502565b50565b50805460008255906000526020600020908101906125ca9190612502565b50565b50805460018160011615610100020316600290046000825580601f106125f35750612612565b601f0160209004906000526020600020908101906126119190612502565b5b50565b61263791905b8082111561263357600081600090555060010161261b565b5090565b905600608060405234801561001057600080fd5b5060405160408061016f8339810180604052810190808051906020019092919080519060200190929190505050806000806101000a81548173ffffffffffffffffffffffffffffffffffffffff021916908373ffffffffffffffffffffffffffffffffffffffff16021790555081600181905550505060db806100946000396000f30060806040526000809054906101000a900473ffffffffffffffffffffffffffffffffffffffff1673ffffffffffffffffffffffffffffffffffffffff1663ca1d209d346001546040518363ffffffff167c0100000000000000000000000000000000000000000000000000000000028152600401808281526020019150506000604051808303818588803b158015609557600080fd5b505af115801560a8573d6000803e3d6000fd5b50505050500000a165627a7a7230582045132ef1bf063d71106feb84a2f2a9537afee524f4f7c8a0fc4fdb0f3fcb889e0029a165627a7a7230582065c916974e14eb4779886e555092489fa4a66dfc3456a255cf82424b048d22890029",
  "source": "pragma solidity ^0.4.24;\n\nimport \"@tps/test-helpers/contracts/apps/AragonApp.sol\";\n\nimport \"@tps/apps-address-book/contracts/AddressBook.sol\";\n\nimport \"@tps/test-helpers/contracts/lib/zeppelin/math/SafeMath.sol\";\n\nimport \"@tps/test-helpers/contracts/lib/zeppelin/math/SafeMath64.sol\";\n\n/*******************************************************************************\n    Copyright 2018, That Planning Suite\n    This program is free software: you can redistribute it and/or modify\n    it under the terms of the GNU General Public License as published by\n    the Free Software Foundation, either version 3 of the License, or\n    (at your option) any later version.\n\n    This program is distributed in the hope that it will be useful,\n    but WITHOUT ANY WARRANTY; without even the implied warranty of\n    MERCHANTABILITY or FITNESS FOR A PARTICULAR PURPOSE.  See the\n    GNU General Public License for more details.\n    You should have received a copy of the GNU General Public License\n    along with this program.  If not, see <http://www.gnu.org/licenses/>.\n*******************************************************************************/\n\n/*******************************************************************************\n* @title IsFundable\n* @author Arthur Lunn\n* @dev Basic interface to show something as fundable\n*******************************************************************************/\ninterface Fundable {\n    function fund(uint256 id) external payable;\n}\n\n\n/*******************************************************************************\n* @title FundForwarder\n* @author Arthur Lunn\n* @dev This will 100% break if the contract is upgraded. Basically just a proxy\n*      to receive funds from an address and \"piece it out\" to a layered contract\n*      Any advice on best practice for this would be welcome.\n*******************************************************************************/\ncontract FundForwarder { \n    Fundable fundable;\n    uint256 id;\n    constructor(uint256 _id, address _fundable) public { \n        fundable = Fundable(_fundable);\n        id = _id;\n    }\n    function () external payable {\n        fundable.fund.value(msg.value)(id);\n    }\n}\n\n\n/*******************************************************************************\n* @title Allocations Contract\n* @author Arthur Lunn\n* @dev This contract is meant to handle tasks like basic budgeting,\n*      and any time that tokens need to be distributed based on a certain\n*      percentage breakdown to an array of addresses. Currently it works with ETH\n*      needs to be adapted to work with tokens.\n*******************************************************************************/\ncontract Allocations is AragonApp, Fundable { \n\n    using SafeMath for uint256;\n\n    struct Payout {\n        bytes32[] candidateKeys;\n        address[] candidateAddresses;\n        uint256[] supports;\n        string metadata;\n        uint256 limit;\n        bool recurring;\n        bool informational;\n        uint256 period;\n        uint256 balance;\n        uint256 amount;\n        uint256 startTime;\n        bool distSet;\n        address token;\n        address proxy;\n    }\n\n\n    AddressBook public addressBook;\n    Payout[] payouts;\n\n    bytes32 constant public START_PAYOUT_ROLE = keccak256(\"START_PAYOUT_ROLE\");\n    bytes32 constant public SET_DISTRIBUTION_ROLE = keccak256(\"SET_DISTRIBUTION_ROLE\");\n    bytes32 constant public EXECUTE_PAYOUT_ROLE = keccak256(\"EXECUTE_PAYOUT_ROLE\");\n\n    event PayoutExecuted(uint256 payoutId);\n    event NewAccount(uint256 accountId);\n    event FundAccount(uint256 accountId);\n    event SetDistribution(uint256 payoutId, uint256 amount);\n\n    function () public payable { \n        revert();\n    }\n\n    /*\n    * @dev This is the function that setups who the candidates will be, and\n    *      where the funds will go for the payout. This is where the payout\n    *      object needs to be created in the payouts array.\n    * @notice Start a payout with the specified candidates and addresses.\n    *         None of the distribution or payments are handled in this step.\n    */\n    function initialize(\n        AddressBook _addressBook\n    ) external onlyInit\n    {\n        addressBook = _addressBook;\n        initialized();\n    }\n\n    /**\n    * @dev This is the function that sets up who the candidates will be, and\n    *      where the funds will go for the payout. This is where the payout\n    *      object needs to be created in the payouts array.\n    * @notice Start a payout with the specified candidates and addresses.\n    *         None of the distribution or payments are handled in this step.\n    * @param _metadata Any relevent label for the payout\n    *\n    */\n    function newPayout( \n        string _metadata,\n        uint256 _limit,\n        address _token\n    ) external isInitialized auth(START_PAYOUT_ROLE) returns(uint256 payoutId)\n    {\n        payoutId = payouts.length++;\n        Payout storage payout = payouts[payoutId];\n        payout.metadata = _metadata;\n        payout.limit = _limit;\n        payout.token = _token;\n        payout.balance = 0;\n        FundForwarder fund = new FundForwarder(payoutId, address(this));\n        payout.proxy = address(fund);\n        emit NewAccount(payoutId); \n    }\n\n    /**\n    * @dev This is the function that the RangeVote will call. It doesnt need\n    *      to be called by a RangeVote (options get weird if it's not)\n    *      but for our use case the SET_DISTRIBUTION_ROLE will be given to\n    *      the RangeVote.\n    * @notice Sets the distribution for the given `payoutId` using an the\n    *         supplied candidate keys and support values.\n    * param _candidateKeys The array of keys for all candidates in this payout\n    * param _supports The Array of all support values for the various candidates\n    */\n    function setDistribution(\n        address[] _candidateAddresses,\n        uint256[] _supports,\n        uint256[] /*unused_infoIndices*/,\n        string /*unused_candidateInfo*/,\n        uint256[] /*unused_level 1 ID - converted to bytes32*/,\n        uint256[] /*unused_level 2 ID - converted to bytes32*/,\n        uint256 _payoutId,\n        bool _informational,\n        bool _recurring,\n        uint256 _period,\n        uint256 _amount\n    ) public payable isInitialized auth(SET_DISTRIBUTION_ROLE)\n    {\n        Payout storage payout = payouts[_payoutId];\n        payout.candidateAddresses = _candidateAddresses;\n        require(_amount <= payout.limit);  \n        payout.informational = _informational;\n        payout.recurring = _recurring;\n        if (!_informational) {\n            payout.balance.add(msg.value);\n            require(payout.balance >= _amount, \"payout account underfunded\");\n            require(payout.limit >= _amount, \"payout limit too low for amount\");\n        } else {\n            require(msg.value == 0, \"cannot fund informational allocation\");\n            payout.balance = 0;\n        }\n        if (_recurring) {\n            payout.period = _period;\n            // minimum granularity is a single day\n            // This check is disabled currently to enable testing of shorter times\n            //require(payout.period > 86399);\n            payout.startTime = block.timestamp; \n        } else {\n            payout.period = 0;\n        }\n\n        payout.distSet = true;\n        payout.supports = _supports;\n        payout.amount = _amount;\n        emit SetDistribution(_payoutId, _amount);\n    }\n\n    function fund(uint256 id) external payable { \n        Payout storage payout = payouts[id];\n        require(!payout.informational);\n        payout.balance = payout.balance.add(msg.value);\n        emit FundAccount(id);\n    }\n\n    function runPayout(uint256 _payoutId) external payable isInitialized returns(bool success) {\n        Payout storage payout = payouts[_payoutId];\n        uint256 pointsPer;\n        uint256 totalSupport;\n        uint i;\n        for (i = 0; i < payout.supports.length; i++) {\n            totalSupport += payout.supports[i];\n        }\n\n        require(!payout.informational, \"Informational payouts don't run\");\n        require(payout.distSet, \"setDistribution must be called first\");\n        if (payout.recurring) {\n            // TDDO create payout execution counter to ensure payout time tracks payouts\n            uint256 payoutTime = payout.startTime.add(payout.period);\n            require(payoutTime < block.timestamp,\"payout period not yet finished\"); // solium-disable-line security/no-block-members\n            payout.startTime = payoutTime;\n        } else {\n            payout.distSet = false;\n        }\n\n        pointsPer = payout.amount.div(totalSupport);\n        //handle vault\n        for (i = 0; i < payout.candidateAddresses.length; i++) {\n            payout.candidateAddresses[i].transfer(payout.supports[i].mul(pointsPer));\n        }\n        success = true;\n        emit PayoutExecuted(_payoutId);\n    }\n\n///////////////////////\n// Getter functions\n///////////////////////\n    function getPayout(uint256 _payoutId) external view\n    returns(uint256 balance, uint256 limit, string metadata, address token, address proxy, uint256 amount)\n    {\n        Payout storage payout = payouts[_payoutId];\n        limit = payout.limit;\n        balance = payout.balance;\n        metadata = payout.metadata;\n        token = payout.token;\n        proxy = payout.proxy;\n        amount = payout.amount;\n    }\n\n    function getNumberOfCandidates(uint256 _payoutId) external view returns(uint256 numCandidates) {\n        Payout storage payout = payouts[_payoutId];\n        numCandidates = payout.supports.length;\n    }\n    \n    function getPayoutDistributionValue(uint256 _payoutId, uint256 idx) external view returns(uint256 supports) {\n        Payout storage payout = payouts[_payoutId];\n        supports = payout.supports[idx];\n    }\n\n}\n\n\n",
  "sourcePath": "/home/quazia/Code/planning-app/apps/allocations/contracts/Allocations.sol",
  "compiler": {
    "name": "solc",
    "version": "0.4.24+commit.e67f0147.Emscripten.clang"
  },
  "schemaVersion": "2.0.1",
  "updatedAt": "2019-01-08T02:42:51.350Z"
}