{
  "contractName": "Allocations",
  "abi": [
    {
      "constant": true,
      "inputs": [],
      "name": "EXECUTE_PAYOUT_ROLE",
      "outputs": [
        {
          "name": "",
          "type": "bytes32"
        }
      ],
      "payable": false,
      "stateMutability": "view",
      "type": "function"
    },
    {
      "constant": true,
      "inputs": [],
      "name": "hasInitialized",
      "outputs": [
        {
          "name": "",
          "type": "bool"
        }
      ],
      "payable": false,
      "stateMutability": "view",
      "type": "function"
    },
    {
      "constant": true,
      "inputs": [
        {
          "name": "_script",
          "type": "bytes"
        }
      ],
      "name": "getEVMScriptExecutor",
      "outputs": [
        {
          "name": "",
          "type": "address"
        }
      ],
      "payable": false,
      "stateMutability": "view",
      "type": "function"
    },
    {
      "constant": true,
      "inputs": [],
      "name": "getRecoveryVault",
      "outputs": [
        {
          "name": "",
          "type": "address"
        }
      ],
      "payable": false,
      "stateMutability": "view",
      "type": "function"
    },
    {
      "constant": true,
      "inputs": [
        {
          "name": "token",
          "type": "address"
        }
      ],
      "name": "allowRecoverability",
      "outputs": [
        {
          "name": "",
          "type": "bool"
        }
      ],
      "payable": false,
      "stateMutability": "view",
      "type": "function"
    },
    {
      "constant": true,
      "inputs": [],
      "name": "appId",
      "outputs": [
        {
          "name": "",
          "type": "bytes32"
        }
      ],
      "payable": false,
      "stateMutability": "view",
      "type": "function"
    },
    {
      "constant": true,
      "inputs": [],
      "name": "getInitializationBlock",
      "outputs": [
        {
          "name": "",
          "type": "uint256"
        }
      ],
      "payable": false,
      "stateMutability": "view",
      "type": "function"
    },
    {
      "constant": false,
      "inputs": [
        {
          "name": "_token",
          "type": "address"
        }
      ],
      "name": "transferToVault",
      "outputs": [],
      "payable": false,
      "stateMutability": "nonpayable",
      "type": "function"
    },
    {
      "constant": true,
      "inputs": [
        {
          "name": "_sender",
          "type": "address"
        },
        {
          "name": "_role",
          "type": "bytes32"
        },
        {
          "name": "_params",
          "type": "uint256[]"
        }
      ],
      "name": "canPerform",
      "outputs": [
        {
          "name": "",
          "type": "bool"
        }
      ],
      "payable": false,
      "stateMutability": "view",
      "type": "function"
    },
    {
      "constant": true,
      "inputs": [],
      "name": "getEVMScriptRegistry",
      "outputs": [
        {
          "name": "",
          "type": "address"
        }
      ],
      "payable": false,
      "stateMutability": "view",
      "type": "function"
    },
    {
      "constant": true,
      "inputs": [],
      "name": "kernel",
      "outputs": [
        {
          "name": "",
          "type": "address"
        }
      ],
      "payable": false,
      "stateMutability": "view",
      "type": "function"
    },
    {
      "constant": true,
      "inputs": [],
      "name": "isPetrified",
      "outputs": [
        {
          "name": "",
          "type": "bool"
        }
      ],
      "payable": false,
      "stateMutability": "view",
      "type": "function"
    },
    {
      "constant": true,
      "inputs": [],
      "name": "START_PAYOUT_ROLE",
      "outputs": [
        {
          "name": "",
          "type": "bytes32"
        }
      ],
      "payable": false,
      "stateMutability": "view",
      "type": "function"
    },
    {
      "constant": true,
      "inputs": [],
      "name": "addressBook",
      "outputs": [
        {
          "name": "",
          "type": "address"
        }
      ],
      "payable": false,
      "stateMutability": "view",
      "type": "function"
    },
    {
      "constant": true,
      "inputs": [],
      "name": "SET_DISTRIBUTION_ROLE",
      "outputs": [
        {
          "name": "",
          "type": "bytes32"
        }
      ],
      "payable": false,
      "stateMutability": "view",
      "type": "function"
    },
    {
      "anonymous": false,
      "inputs": [
        {
          "indexed": false,
          "name": "accountId",
          "type": "uint256"
        }
      ],
      "name": "PayoutExecuted",
      "type": "event"
    },
    {
      "anonymous": false,
      "inputs": [
        {
          "indexed": false,
          "name": "accountId",
          "type": "uint256"
        }
      ],
      "name": "NewAccount",
      "type": "event"
    },
    {
      "anonymous": false,
      "inputs": [
        {
          "indexed": false,
          "name": "accountId",
          "type": "uint256"
        }
      ],
      "name": "FundAccount",
      "type": "event"
    },
    {
      "anonymous": false,
      "inputs": [
        {
          "indexed": false,
          "name": "accountId",
          "type": "uint256"
        }
      ],
      "name": "SetDistribution",
      "type": "event"
    },
    {
      "anonymous": false,
      "inputs": [
        {
          "indexed": true,
          "name": "executor",
          "type": "address"
        },
        {
          "indexed": false,
          "name": "script",
          "type": "bytes"
        },
        {
          "indexed": false,
          "name": "input",
          "type": "bytes"
        },
        {
          "indexed": false,
          "name": "returnData",
          "type": "bytes"
        }
      ],
      "name": "ScriptResult",
      "type": "event"
    },
    {
      "constant": false,
      "inputs": [
        {
          "name": "_addressBook",
          "type": "address"
        }
      ],
      "name": "initialize",
      "outputs": [],
      "payable": false,
      "stateMutability": "nonpayable",
      "type": "function"
    },
    {
      "constant": true,
      "inputs": [
        {
          "name": "_payoutId",
          "type": "uint256"
        }
      ],
      "name": "getPayout",
      "outputs": [
        {
          "name": "balance",
          "type": "uint256"
        },
        {
          "name": "limit",
          "type": "uint256"
        },
        {
          "name": "metadata",
          "type": "string"
        },
        {
          "name": "token",
          "type": "address"
        },
        {
          "name": "proxy",
          "type": "address"
        },
        {
          "name": "amount",
          "type": "uint256"
        }
      ],
      "payable": false,
      "stateMutability": "view",
      "type": "function"
    },
    {
      "constant": true,
      "inputs": [
        {
          "name": "_payoutId",
          "type": "uint256"
        }
      ],
      "name": "getNumberOfCandidates",
      "outputs": [
        {
          "name": "numCandidates",
          "type": "uint256"
        }
      ],
      "payable": false,
      "stateMutability": "view",
      "type": "function"
    },
    {
      "constant": true,
      "inputs": [
        {
          "name": "_payoutId",
          "type": "uint256"
        },
        {
          "name": "idx",
          "type": "uint256"
        }
      ],
      "name": "getPayoutDistributionValue",
      "outputs": [
        {
          "name": "supports",
          "type": "uint256"
        }
      ],
      "payable": false,
      "stateMutability": "view",
      "type": "function"
    },
    {
      "constant": false,
      "inputs": [
        {
          "name": "_metadata",
          "type": "string"
        },
        {
          "name": "_limit",
          "type": "uint256"
        },
        {
          "name": "_token",
          "type": "address"
        }
      ],
      "name": "newPayout",
      "outputs": [
        {
          "name": "payoutId",
          "type": "uint256"
        }
      ],
      "payable": false,
      "stateMutability": "nonpayable",
      "type": "function"
    },
    {
      "constant": false,
      "inputs": [
        {
          "name": "id",
          "type": "uint256"
        }
      ],
      "name": "fund",
      "outputs": [],
      "payable": true,
      "stateMutability": "payable",
      "type": "function"
    },
    {
      "constant": false,
      "inputs": [
        {
          "name": "_payoutId",
          "type": "uint256"
        }
      ],
      "name": "runPayout",
      "outputs": [
        {
          "name": "success",
          "type": "bool"
        }
      ],
      "payable": true,
      "stateMutability": "payable",
      "type": "function"
    },
    {
      "constant": false,
      "inputs": [
        {
          "name": "_candidateAddresses",
          "type": "address[]"
        },
        {
          "name": "_supports",
          "type": "uint256[]"
        },
        {
          "name": "",
          "type": "uint256[]"
        },
        {
          "name": "",
          "type": "string"
        },
        {
          "name": "",
          "type": "uint256[]"
        },
        {
          "name": "",
          "type": "uint256[]"
        },
        {
          "name": "_payoutId",
          "type": "uint256"
        },
        {
          "name": "_informational",
          "type": "bool"
        },
        {
          "name": "_recurring",
          "type": "bool"
        },
        {
          "name": "_period",
          "type": "uint256"
        },
        {
          "name": "_amount",
          "type": "uint256"
        }
      ],
      "name": "setDistribution",
      "outputs": [],
      "payable": true,
      "stateMutability": "payable",
      "type": "function"
    }
  ],
  "bytecode": "0x60806040526200001d62000023640100000000026401000000009004565b62000309565b60006200003e6200015e640100000000026401000000009004565b146040805190810160405280601881526020017f494e49545f414c52454144595f494e495449414c495a4544000000000000000081525090151562000121576040517f08c379a00000000000000000000000000000000000000000000000000000000081526004018080602001828103825283818151815260200191508051906020019080838360005b83811015620000e5578082015181840152602081019050620000c8565b50505050905090810190601f168015620001135780820380516001836020036101000a031916815260200191505b509250505060405180910390fd5b506200015c7fffffffffffffffffffffffffffffffffffffffffffffffffffffffffffffffff620001ab640100000000026401000000009004565b565b6000620001a67febb05b386a8d34882b8711d156f463690983dc47815980fb82aeeff1aa43579e60010260001916620002f76401000000000262002918176401000000009004565b905090565b6000620001c66200015e640100000000026401000000009004565b146040805190810160405280601881526020017f494e49545f414c52454144595f494e495449414c495a45440000000000000000815250901515620002a9576040517f08c379a00000000000000000000000000000000000000000000000000000000081526004018080602001828103825283818151815260200191508051906020019080838360005b838110156200026d57808201518184015260208101905062000250565b50505050905090810190601f1680156200029b5780820380516001836020036101000a031916815260200191505b509250505060405180910390fd5b50620002f4817febb05b386a8d34882b8711d156f463690983dc47815980fb82aeeff1aa43579e60010260001916620003026401000000000262002db2179091906401000000009004565b50565b600081549050919050565b8082555050565b61333680620003196000396000f300608060405260043610610133576000357c0100000000000000000000000000000000000000000000000000000000900463ffffffff1680630648bb47146101385780630803fac01461016b5780632914b9bd1461019a57806332f0a3b5146102435780633e56f9f91461029a5780633fe073db146103bb57806363216e441461040657806374c454af146104475780637a898217146104c05780637e7db6e1146106a157806380afdea8146106fc5780638b3dd7491461072f5780639d4941d81461075a578063a1658fad1461079d578063a479e50814610849578063b4f36fb9146108a0578063c4d66de8146108d8578063ca1d209d1461091b578063d4aae0c41461093b578063de4796ed14610992578063e2120294146109c1578063f5887cdd146109f4578063fe3b501214610a4b575b600080fd5b34801561014457600080fd5b5061014d610a7e565b60405180826000191660001916815260200191505060405180910390f35b34801561017757600080fd5b50610180610ab7565b604051808215151515815260200191505060405180910390f35b3480156101a657600080fd5b50610201600480360381019080803590602001908201803590602001908080601f0160208091040260200160405190810160405280939291908181526020018383808284378201915050505050509192919290505050610ae2565b604051808273ffffffffffffffffffffffffffffffffffffffff1673ffffffffffffffffffffffffffffffffffffffff16815260200191505060405180910390f35b34801561024f57600080fd5b50610258610c01565b604051808273ffffffffffffffffffffffffffffffffffffffff1673ffffffffffffffffffffffffffffffffffffffff16815260200191505060405180910390f35b3480156102a657600080fd5b506102c560048036038101908080359060200190929190505050610cae565b60405180878152602001868152602001806020018573ffffffffffffffffffffffffffffffffffffffff1673ffffffffffffffffffffffffffffffffffffffff1681526020018473ffffffffffffffffffffffffffffffffffffffff1673ffffffffffffffffffffffffffffffffffffffff168152602001838152602001828103825286818151815260200191508051906020019080838360005b8381101561037b578082015181840152602081019050610360565b50505050905090810190601f1680156103a85780820380516001836020036101000a031916815260200191505b5097505050505050505060405180910390f35b3480156103c757600080fd5b506103f06004803603810190808035906020019092919080359060200190929190505050610de4565b6040518082815260200191505060405180910390f35b34801561041257600080fd5b5061043160048036038101908080359060200190929190505050610e2b565b6040518082815260200191505060405180910390f35b34801561045357600080fd5b506104aa60048036038101908080359060200190820180359060200191909192939192939080359060200190929190803573ffffffffffffffffffffffffffffffffffffffff169060200190929190505050610e5d565b6040518082815260200191505060405180910390f35b61069f600480360381019080803590602001908201803590602001908080602002602001604051908101604052809392919081815260200183836020028082843782019150505050505091929192908035906020019082018035906020019080806020026020016040519081016040528093929190818152602001838360200280828437820191505050505050919291929080359060200190820180359060200190808060200260200160405190810160405280939291908181526020018383602002808284378201915050505050509192919290803590602001908201803590602001908080601f01602080910402602001604051908101604052809392919081815260200183838082843782019150505050505091929192908035906020019082018035906020019080806020026020016040519081016040528093929190818152602001838360200280828437820191505050505050919291929080359060200190820180359060200190808060200260200160405190810160405280939291908181526020018383602002808284378201915050505050509192919290803590602001909291908035151590602001909291908035151590602001909291908035906020019092919080359060200190929190505050611223565b005b3480156106ad57600080fd5b506106e2600480360381019080803573ffffffffffffffffffffffffffffffffffffffff169060200190929190505050611751565b604051808215151515815260200191505060405180910390f35b34801561070857600080fd5b5061071161175c565b60405180826000191660001916815260200191505060405180910390f35b34801561073b57600080fd5b50610744611793565b6040518082815260200191505060405180910390f35b34801561076657600080fd5b5061079b600480360381019080803573ffffffffffffffffffffffffffffffffffffffff1690602001909291905050506117ca565b005b3480156107a957600080fd5b5061082f600480360381019080803573ffffffffffffffffffffffffffffffffffffffff169060200190929190803560001916906020019092919080359060200190820180359060200190808060200260200160405190810160405280939291908181526020018383602002808284378201915050505050509192919290505050611bfc565b604051808215151515815260200191505060405180910390f35b34801561085557600080fd5b5061085e611e03565b604051808273ffffffffffffffffffffffffffffffffffffffff1673ffffffffffffffffffffffffffffffffffffffff16815260200191505060405180910390f35b6108be60048036038101908080359060200190929190505050611f1e565b604051808215151515815260200191505060405180910390f35b3480156108e457600080fd5b50610919600480360381019080803573ffffffffffffffffffffffffffffffffffffffff169060200190929190505050612543565b005b61093960048036038101908080359060200190929190505050612678565b005b34801561094757600080fd5b50610950612711565b604051808273ffffffffffffffffffffffffffffffffffffffff1673ffffffffffffffffffffffffffffffffffffffff16815260200191505060405180910390f35b34801561099e57600080fd5b506109a7612748565b604051808215151515815260200191505060405180910390f35b3480156109cd57600080fd5b506109d6612779565b60405180826000191660001916815260200191505060405180910390f35b348015610a0057600080fd5b50610a096127b2565b604051808273ffffffffffffffffffffffffffffffffffffffff1673ffffffffffffffffffffffffffffffffffffffff16815260200191505060405180910390f35b348015610a5757600080fd5b50610a606127d7565b60405180826000191660001916815260200191505060405180910390f35b60405180807f455845435554455f5041594f55545f524f4c45000000000000000000000000008152506013019050604051809103902081565b600080610ac2611793565b905060008114158015610adc575080610ad9612810565b10155b91505090565b6000610aec611e03565b73ffffffffffffffffffffffffffffffffffffffff166304bf2a7f836040518263ffffffff167c01000000000000000000000000000000000000000000000000000000000281526004018080602001828103825283818151815260200191508051906020019080838360005b83811015610b73578082015181840152602081019050610b58565b50505050905090810190601f168015610ba05780820380516001836020036101000a031916815260200191505b5092505050602060405180830381600087803b158015610bbf57600080fd5b505af1158015610bd3573d6000803e3d6000fd5b505050506040513d6020811015610be957600080fd5b81019080805190602001909291905050509050919050565b6000610c0b612711565b73ffffffffffffffffffffffffffffffffffffffff166332f0a3b56040518163ffffffff167c0100000000000000000000000000000000000000000000000000000000028152600401602060405180830381600087803b158015610c6e57600080fd5b505af1158015610c82573d6000803e3d6000fd5b505050506040513d6020811015610c9857600080fd5b8101908080519060200190929190505050905090565b6000806060600080600080600188815481101515610cc857fe5b90600052602060002090600c020190508060040154955080600701549650806003018054600181600116156101000203166002900480601f016020809104026020016040519081016040528092919081815260200182805460018160011615610100020316600290048015610d7e5780601f10610d5357610100808354040283529160200191610d7e565b820191906000526020600020905b815481529060010190602001808311610d6157829003601f168201915b5050505050945080600a0160019054906101000a900473ffffffffffffffffffffffffffffffffffffffff16935080600b0160009054906101000a900473ffffffffffffffffffffffffffffffffffffffff169250806008015491505091939550919395565b600080600184815481101515610df657fe5b90600052602060002090600c020190508060020183815481101515610e1757fe5b906000526020600020015491505092915050565b600080600183815481101515610e3d57fe5b90600052602060002090600c020190508060020180549050915050919050565b6000806000610e6a610ab7565b6040805190810160405280601481526020017f494e49545f4e4f545f494e495449414c495a4544000000000000000000000000815250901515610f48576040517f08c379a00000000000000000000000000000000000000000000000000000000081526004018080602001828103825283818151815260200191508051906020019080838360005b83811015610f0d578082015181840152602081019050610ef2565b50505050905090810190601f168015610f3a5780820380516001836020036101000a031916815260200191505b509250505060405180910390fd5b5060405180807f53544152545f5041594f55545f524f4c4500000000000000000000000000000081525060110190506040518091039020610fba33826000604051908082528060200260200182016040528015610fb45781602001602082028038833980820191505090505b50611bfc565b6040805190810160405280600f81526020017f4150505f415554485f4641494c45440000000000000000000000000000000000815250901515611098576040517f08c379a00000000000000000000000000000000000000000000000000000000081526004018080602001828103825283818151815260200191508051906020019080838360005b8381101561105d578082015181840152602081019050611042565b50505050905090810190601f16801561108a5780820380516001836020036101000a031916815260200191505b509250505060405180910390fd5b50600180548091906001016110ad9190612db9565b93506001848154811015156110be57fe5b90600052602060002090600c0201925087878460030191906110e1929190612deb565b508583600401819055508483600a0160016101000a81548173ffffffffffffffffffffffffffffffffffffffff021916908373ffffffffffffffffffffffffffffffffffffffff160217905550600083600701819055508330611142612e6b565b808381526020018273ffffffffffffffffffffffffffffffffffffffff1673ffffffffffffffffffffffffffffffffffffffff16815260200192505050604051809103906000f08015801561119b573d6000803e3d6000fd5b5091508183600b0160006101000a81548173ffffffffffffffffffffffffffffffffffffffff021916908373ffffffffffffffffffffffffffffffffffffffff1602179055507f4dd40a488a410554835be3689f2fffba01db70ca79a6e01779722b8171968727846040518082815260200191505060405180910390a1505050949350505050565b600061122d610ab7565b6040805190810160405280601481526020017f494e49545f4e4f545f494e495449414c495a454400000000000000000000000081525090151561130b576040517f08c379a00000000000000000000000000000000000000000000000000000000081526004018080602001828103825283818151815260200191508051906020019080838360005b838110156112d05780820151818401526020810190506112b5565b50505050905090810190601f1680156112fd5780820380516001836020036101000a031916815260200191505b509250505060405180910390fd5b5060405180807f5345545f444953545249425554494f4e5f524f4c4500000000000000000000008152506015019050604051809103902061137d338260006040519080825280602002602001820160405280156113775781602001602082028038833980820191505090505b50611bfc565b6040805190810160405280600f81526020017f4150505f415554485f4641494c4544000000000000000000000000000000000081525090151561145b576040517f08c379a00000000000000000000000000000000000000000000000000000000081526004018080602001828103825283818151815260200191508051906020019080838360005b83811015611420578082015181840152602081019050611405565b50505050905090810190601f16801561144d5780820380516001836020036101000a031916815260200191505b509250505060405180910390fd5b5060018781548110151561146b57fe5b90600052602060002090600c020191508c826001019080519060200190611493929190612e7b565b50816004015483111515156114a757600080fd5b858260050160016101000a81548160ff021916908315150217905550848260050160006101000a81548160ff0219169083151502179055508515156115fb576114fd34836007015461281890919063ffffffff16565b508282600701541015151561157a576040517f08c379a000000000000000000000000000000000000000000000000000000000815260040180806020018281038252601a8152602001807f7061796f7574206163636f756e7420756e64657266756e64656400000000000081525060200191505060405180910390fd5b828260040154101515156115f6576040517f08c379a000000000000000000000000000000000000000000000000000000000815260040180806020018281038252601f8152602001807f7061796f7574206c696d697420746f6f206c6f7720666f7220616d6f756e740081525060200191505060405180910390fd5b6116a4565b600034141515611699576040517f08c379a00000000000000000000000000000000000000000000000000000000081526004018080602001828103825260248152602001807f63616e6e6f742066756e6420696e666f726d6174696f6e616c20616c6c6f636181526020017f74696f6e0000000000000000000000000000000000000000000000000000000081525060400191505060405180910390fd5b600082600701819055505b84156116c1578382600601819055504282600901819055506116cc565b600082600601819055505b600182600a0160006101000a81548160ff0219169083151502179055508b826002019080519060200190611701929190612f05565b508282600801819055507feb53eaaac8288d5ff0f295139b7a0eca9d8724ab5c1bec2552b9f8fdfe184dfe876040518082815260200191505060405180910390a150505050505050505050505050565b600060019050919050565b600061178e7fd625496217aa6a3453eecb9c3489dc5a53e6c67b444329ea2b2cbc9ff547639b6001026000191661290d565b905090565b60006117c57febb05b386a8d34882b8711d156f463690983dc47815980fb82aeeff1aa43579e60010260001916612918565b905090565b6000806117d683611751565b6040805190810160405280601281526020017f5245434f5645525f444953414c4c4f57454400000000000000000000000000008152509015156118b4576040517f08c379a00000000000000000000000000000000000000000000000000000000081526004018080602001828103825283818151815260200191508051906020019080838360005b8381101561187957808201518184015260208101905061185e565b50505050905090810190601f1680156118a65780820380516001836020036101000a031916815260200191505b509250505060405180910390fd5b506118bd610c01565b91506118c882612923565b6040805190810160405280601a81526020017f5245434f5645525f5641554c545f4e4f545f434f4e54524143540000000000008152509015156119a6576040517f08c379a00000000000000000000000000000000000000000000000000000000081526004018080602001828103825283818151815260200191508051906020019080838360005b8381101561196b578082015181840152602081019050611950565b50505050905090810190601f1680156119985780820380516001836020036101000a031916815260200191505b509250505060405180910390fd5b50600073ffffffffffffffffffffffffffffffffffffffff168373ffffffffffffffffffffffffffffffffffffffff161415611a3f578173ffffffffffffffffffffffffffffffffffffffff166108fc3073ffffffffffffffffffffffffffffffffffffffff16319081150290604051600060405180830381858888f19350505050158015611a39573d6000803e3d6000fd5b50611bf7565b8273ffffffffffffffffffffffffffffffffffffffff166370a08231306040518263ffffffff167c0100000000000000000000000000000000000000000000000000000000028152600401808273ffffffffffffffffffffffffffffffffffffffff1673ffffffffffffffffffffffffffffffffffffffff168152602001915050602060405180830381600087803b158015611ada57600080fd5b505af1158015611aee573d6000803e3d6000fd5b505050506040513d6020811015611b0457600080fd5b810190808051906020019092919050505090508273ffffffffffffffffffffffffffffffffffffffff1663a9059cbb83836040518363ffffffff167c0100000000000000000000000000000000000000000000000000000000028152600401808373ffffffffffffffffffffffffffffffffffffffff1673ffffffffffffffffffffffffffffffffffffffff16815260200182815260200192505050602060405180830381600087803b158015611bba57600080fd5b505af1158015611bce573d6000803e3d6000fd5b505050506040513d6020811015611be457600080fd5b8101908080519060200190929190505050505b505050565b60008060606000611c0b610ab7565b1515611c1a5760009350611df9565b611c22612711565b9250600073ffffffffffffffffffffffffffffffffffffffff168373ffffffffffffffffffffffffffffffffffffffff161415611c625760009350611df9565b602085510290508491508082528273ffffffffffffffffffffffffffffffffffffffff1663fdef9106883089866040518563ffffffff167c0100000000000000000000000000000000000000000000000000000000028152600401808573ffffffffffffffffffffffffffffffffffffffff1673ffffffffffffffffffffffffffffffffffffffff1681526020018473ffffffffffffffffffffffffffffffffffffffff1673ffffffffffffffffffffffffffffffffffffffff168152602001836000191660001916815260200180602001828103825283818151815260200191508051906020019080838360005b83811015611d6c578082015181840152602081019050611d51565b50505050905090810190601f168015611d995780820380516001836020036101000a031916815260200191505b5095505050505050602060405180830381600087803b158015611dbb57600080fd5b505af1158015611dcf573d6000803e3d6000fd5b505050506040513d6020811015611de557600080fd5b810190808051906020019092919050505093505b5050509392505050565b600080611e0e612711565b73ffffffffffffffffffffffffffffffffffffffff1663be00bbd87fd6f028ca0e8edb4a8c9757ca4fdccab25fa1e0317da1188108f7d2dee14902fb6001027fddbcfd564f642ab5627cf68b9b7d374fb4f8a36e941a75d89c87998cef03bd616001026040518363ffffffff167c0100000000000000000000000000000000000000000000000000000000028152600401808360001916600019168152602001826000191660001916815260200192505050602060405180830381600087803b158015611eda57600080fd5b505af1158015611eee573d6000803e3d6000fd5b505050506040513d6020811015611f0457600080fd5b810190808051906020019092919050505090508091505090565b600080600080600080611f2f610ab7565b6040805190810160405280601481526020017f494e49545f4e4f545f494e495449414c495a454400000000000000000000000081525090151561200d576040517f08c379a00000000000000000000000000000000000000000000000000000000081526004018080602001828103825283818151815260200191508051906020019080838360005b83811015611fd2578082015181840152602081019050611fb7565b50505050905090810190601f168015611fff5780820380516001836020036101000a031916815260200191505b509250505060405180910390fd5b5060405180807f455845435554455f5041594f55545f524f4c45000000000000000000000000008152506013019050604051809103902061207f338260006040519080825280602002602001820160405280156120795781602001602082028038833980820191505090505b50611bfc565b6040805190810160405280600f81526020017f4150505f415554485f4641494c4544000000000000000000000000000000000081525090151561215d576040517f08c379a00000000000000000000000000000000000000000000000000000000081526004018080602001828103825283818151815260200191508051906020019080838360005b83811015612122578082015181840152602081019050612107565b50505050905090810190601f16801561214f5780820380516001836020036101000a031916815260200191505b509250505060405180910390fd5b5060018881548110151561216d57fe5b90600052602060002090600c02019550600092505b85600201805490508310156121be5785600201838154811015156121a257fe5b9060005260206000200154840193508280600101935050612182565b8560050160019054906101000a900460ff16151515612245576040517f08c379a000000000000000000000000000000000000000000000000000000000815260040180806020018281038252601f8152602001807f496e666f726d6174696f6e616c207061796f75747320646f6e27742072756e0081525060200191505060405180910390fd5b85600a0160009054906101000a900460ff1615156122f1576040517f08c379a00000000000000000000000000000000000000000000000000000000081526004018080602001828103825260248152602001807f736574446973747269627574696f6e206d7573742062652063616c6c6564206681526020017f697273740000000000000000000000000000000000000000000000000000000081525060400191505060405180910390fd5b8560050160009054906101000a900460ff16156123aa576123238660060154876009015461281890919063ffffffff16565b9150428210151561239c576040517f08c379a000000000000000000000000000000000000000000000000000000000815260040180806020018281038252601e8152602001807f7061796f757420706572696f64206e6f74207965742066696e6973686564000081525060200191505060405180910390fd5b8186600901819055506123c8565b600086600a0160006101000a81548160ff0219169083151502179055505b6123df84876008015461297590919063ffffffff16565b9450600092505b85600101805490508310156124fd57856001018381548110151561240657fe5b9060005260206000200160009054906101000a900473ffffffffffffffffffffffffffffffffffffffff1673ffffffffffffffffffffffffffffffffffffffff166108fc61247887896002018781548110151561245f57fe5b9060005260206000200154612a7390919063ffffffff16565b9081150290604051600060405180830381858888f193505050501580156124a3573d6000803e3d6000fd5b506124e86124d58688600201868154811015156124bc57fe5b9060005260206000200154612a7390919063ffffffff16565b8760070154612b8590919063ffffffff16565b866007018190555082806001019350506123e6565b600196507f921111cf8da02f50d459c9db80510eeb1dc2443e86b4a9da3f5e4c8b1e857ec2886040518082815260200191505060405180910390a1505050505050919050565b600061254d611793565b146040805190810160405280601881526020017f494e49545f414c52454144595f494e495449414c495a4544000000000000000081525090151561262c576040517f08c379a00000000000000000000000000000000000000000000000000000000081526004018080602001828103825283818151815260200191508051906020019080838360005b838110156125f15780820151818401526020810190506125d6565b50505050905090810190601f16801561261e5780820380516001836020036101000a031916815260200191505b509250505060405180910390fd5b50806000806101000a81548173ffffffffffffffffffffffffffffffffffffffff021916908373ffffffffffffffffffffffffffffffffffffffff160217905550612675612c7a565b50565b600060018281548110151561268957fe5b90600052602060002090600c020190508060050160019054906101000a900460ff161515156126b757600080fd5b6126ce34826007015461281890919063ffffffff16565b81600701819055507f40db677cfdb60d4c50bee042739bcdc73f449a0247722b722cf4a2388a21c787826040518082815260200191505060405180910390a15050565b60006127437f4172f0f7d2289153072b0a6ca36959e0cbe2efc3afe50fc81636caa96338137b60010260001916612da7565b905090565b60007fffffffffffffffffffffffffffffffffffffffffffffffffffffffffffffffff612773611793565b14905090565b60405180807f53544152545f5041594f55545f524f4c450000000000000000000000000000008152506011019050604051809103902081565b6000809054906101000a900473ffffffffffffffffffffffffffffffffffffffff1681565b60405180807f5345545f444953545249425554494f4e5f524f4c4500000000000000000000008152506015019050604051809103902081565b600043905090565b6000808284019050838110156040805190810160405280601181526020017f4d4154485f4144445f4f564552464c4f57000000000000000000000000000000815250901515612902576040517f08c379a00000000000000000000000000000000000000000000000000000000081526004018080602001828103825283818151815260200191508051906020019080838360005b838110156128c75780820151818401526020810190506128ac565b50505050905090810190601f1680156128f45780820380516001836020036101000a031916815260200191505b509250505060405180910390fd5b508091505092915050565b600081549050919050565b600081549050919050565b600080600073ffffffffffffffffffffffffffffffffffffffff168373ffffffffffffffffffffffffffffffffffffffff161415612964576000915061296f565b823b90506000811191505b50919050565b600080600083116040805190810160405280600d81526020017f4d4154485f4449565f5a45524f00000000000000000000000000000000000000815250901515612a5a576040517f08c379a00000000000000000000000000000000000000000000000000000000081526004018080602001828103825283818151815260200191508051906020019080838360005b83811015612a1f578082015181840152602081019050612a04565b50505050905090810190601f168015612a4c5780820380516001836020036101000a031916815260200191505b509250505060405180910390fd5b508284811515612a6657fe5b0490508091505092915050565b6000806000841415612a885760009150612b7e565b8284029050828482811515612a9957fe5b04146040805190810160405280601181526020017f4d4154485f4d554c5f4f564552464c4f57000000000000000000000000000000815250901515612b79576040517f08c379a00000000000000000000000000000000000000000000000000000000081526004018080602001828103825283818151815260200191508051906020019080838360005b83811015612b3e578082015181840152602081019050612b23565b50505050905090810190601f168015612b6b5780820380516001836020036101000a031916815260200191505b509250505060405180910390fd5b508091505b5092915050565b600080838311156040805190810160405280601281526020017f4d4154485f5355425f554e444552464c4f570000000000000000000000000000815250901515612c6a576040517f08c379a00000000000000000000000000000000000000000000000000000000081526004018080602001828103825283818151815260200191508051906020019080838360005b83811015612c2f578082015181840152602081019050612c14565b50505050905090810190601f168015612c5c5780820380516001836020036101000a031916815260200191505b509250505060405180910390fd5b5082840390508091505092915050565b6000612c84611793565b146040805190810160405280601881526020017f494e49545f414c52454144595f494e495449414c495a45440000000000000000815250901515612d63576040517f08c379a00000000000000000000000000000000000000000000000000000000081526004018080602001828103825283818151815260200191508051906020019080838360005b83811015612d28578082015181840152602081019050612d0d565b50505050905090810190601f168015612d555780820380516001836020036101000a031916815260200191505b509250505060405180910390fd5b50612da5612d6f612810565b7febb05b386a8d34882b8711d156f463690983dc47815980fb82aeeff1aa43579e60010260001916612db290919063ffffffff16565b565b600081549050919050565b8082555050565b815481835581811115612de657600c0281600c028360005260206000209182019101612de59190612f52565b5b505050565b828054600181600116156101000203166002900490600052602060002090601f016020900481019282601f10612e2c57803560ff1916838001178555612e5a565b82800160010185558215612e5a579182015b82811115612e59578235825591602001919060010190612e3e565b5b509050612e679190613063565b5090565b60405161016f8061319c83390190565b828054828255906000526020600020908101928215612ef4579160200282015b82811115612ef35782518260006101000a81548173ffffffffffffffffffffffffffffffffffffffff021916908373ffffffffffffffffffffffffffffffffffffffff16021790555091602001919060010190612e9b565b5b509050612f019190613088565b5090565b828054828255906000526020600020908101928215612f41579160200282015b82811115612f40578251825591602001919060010190612f25565b5b509050612f4e9190613063565b5090565b61306091905b8082111561305c5760008082016000612f7191906130cb565b600182016000612f8191906130ec565b600282016000612f91919061310d565b600382016000612fa1919061312e565b60048201600090556005820160006101000a81549060ff02191690556005820160016101000a81549060ff02191690556006820160009055600782016000905560088201600090556009820160009055600a820160006101000a81549060ff0219169055600a820160016101000a81549073ffffffffffffffffffffffffffffffffffffffff0219169055600b820160006101000a81549073ffffffffffffffffffffffffffffffffffffffff021916905550600c01612f58565b5090565b90565b61308591905b80821115613081576000816000905550600101613069565b5090565b90565b6130c891905b808211156130c457600081816101000a81549073ffffffffffffffffffffffffffffffffffffffff02191690555060010161308e565b5090565b90565b50805460008255906000526020600020908101906130e99190613176565b50565b508054600082559060005260206000209081019061310a9190613063565b50565b508054600082559060005260206000209081019061312b9190613063565b50565b50805460018160011615610100020316600290046000825580601f106131545750613173565b601f0160209004906000526020600020908101906131729190613063565b5b50565b61319891905b8082111561319457600081600090555060010161317c565b5090565b905600608060405234801561001057600080fd5b5060405160408061016f8339810180604052810190808051906020019092919080519060200190929190505050806000806101000a81548173ffffffffffffffffffffffffffffffffffffffff021916908373ffffffffffffffffffffffffffffffffffffffff16021790555081600181905550505060db806100946000396000f30060806040526000809054906101000a900473ffffffffffffffffffffffffffffffffffffffff1673ffffffffffffffffffffffffffffffffffffffff1663ca1d209d346001546040518363ffffffff167c0100000000000000000000000000000000000000000000000000000000028152600401808281526020019150506000604051808303818588803b158015609557600080fd5b505af115801560a8573d6000803e3d6000fd5b50505050500000a165627a7a72305820cc2ab708f345d9d675cac84bfdea0f9a7389bdf574dbcd14e721b40c0b74498c0029a165627a7a72305820a1b60e2c3a7a59a6dfc659840ac1deafa1b3bb1687900706dd753db2f815932e0029",
  "source": "pragma solidity ^0.4.24;\n\nimport \"@aragon/os/contracts/apps/AragonApp.sol\";\n\nimport \"@tps/apps-address-book/contracts/AddressBook.sol\";\n\nimport \"@aragon/os/contracts/lib/math/SafeMath.sol\";\n\nimport \"@aragon/os/contracts/lib/math/SafeMath64.sol\";\n\n/*******************************************************************************\n    Copyright 2018, That Planning Suite\n    This program is free software: you can redistribute it and/or modify\n    it under the terms of the GNU General Public License as published by\n    the Free Software Foundation, either version 3 of the License, or\n    (at your option) any later version.\n\n    This program is distributed in the hope that it will be useful,\n    but WITHOUT ANY WARRANTY; without even the implied warranty of\n    MERCHANTABILITY or FITNESS FOR A PARTICULAR PURPOSE.  See the\n    GNU General Public License for more details.\n    You should have received a copy of the GNU General Public License\n    along with this program.  If not, see <http://www.gnu.org/licenses/>.\n*******************************************************************************/\n\n/*******************************************************************************\n* @title IsFundable\n* @author Arthur Lunn\n* @dev Basic interface to show something as fundable\n*******************************************************************************/\ninterface Fundable {\n    function fund(uint256 id) external payable;\n}\n\n\n/*******************************************************************************\n* @title FundForwarder\n* @author Arthur Lunn\n* @dev This will 100% break if the contract is upgraded. Basically just a proxy\n*      to receive funds from an address and \"piece it out\" to a layered contract\n*      Any advice on best practice for this would be welcome.\n*******************************************************************************/\ncontract FundForwarder { \n    Fundable fundable;\n    uint256 id;\n\n    constructor(uint256 _id, address _fundable) public { \n        fundable = Fundable(_fundable);\n        id = _id;\n    }\n\n    function () external payable {\n        fundable.fund.value(msg.value)(id);\n    }\n}\n\n\n/*******************************************************************************\n* @title Allocations Contract\n* @author Arthur Lunn\n* @dev This contract is meant to handle tasks like basic budgeting,\n*      and any time that tokens need to be distributed based on a certain\n*      percentage breakdown to an array of addresses. Currently it works with ETH\n*      needs to be adapted to work with tokens.\n*******************************************************************************/\ncontract Allocations is AragonApp, Fundable { \n\n    using SafeMath for uint256;\n\n    struct Payout {\n        bytes32[] candidateKeys;\n        address[] candidateAddresses;\n        uint256[] supports;\n        string metadata;\n        uint256 limit;\n        bool recurring;\n        bool informational;\n        uint256 period;\n        uint256 balance;\n        uint256 amount;\n        uint256 startTime;\n        bool distSet;\n        address token;\n        address proxy;\n    }\n\n\n    AddressBook public addressBook;\n    Payout[] payouts;\n\n    bytes32 constant public START_PAYOUT_ROLE = keccak256(\"START_PAYOUT_ROLE\");\n    bytes32 constant public SET_DISTRIBUTION_ROLE = keccak256(\"SET_DISTRIBUTION_ROLE\");\n    bytes32 constant public EXECUTE_PAYOUT_ROLE = keccak256(\"EXECUTE_PAYOUT_ROLE\");\n\n    event PayoutExecuted(uint256 accountId);\n    event NewAccount(uint256 accountId);\n    event FundAccount(uint256 accountId);\n    event SetDistribution(uint256 accountId);\n\n    /*\n    * @dev This is the function that setups who the candidates will be, and\n    *      where the funds will go for the payout. This is where the payout\n    *      object needs to be created in the payouts array.\n    * @notice Start a payout with the specified candidates and addresses.\n    *         None of the distribution or payments are handled in this step.\n    */\n    function initialize(\n        AddressBook _addressBook\n    ) external onlyInit\n    {\n        addressBook = _addressBook;\n        initialized();\n    }\n\n///////////////////////\n// Getter functions\n///////////////////////\n    function getPayout(uint256 _payoutId) external view\n    returns(uint256 balance, uint256 limit, string metadata, address token, address proxy, uint256 amount)\n    {\n        Payout storage payout = payouts[_payoutId];\n        limit = payout.limit;\n        balance = payout.balance;\n        metadata = payout.metadata;\n        token = payout.token;\n        proxy = payout.proxy;\n        amount = payout.amount;\n    }\n\n    function getNumberOfCandidates(uint256 _payoutId) external view returns(uint256 numCandidates) {\n        Payout storage payout = payouts[_payoutId];\n        numCandidates = payout.supports.length;\n    }\n    \n    function getPayoutDistributionValue(uint256 _payoutId, uint256 idx) external view returns(uint256 supports) {\n        Payout storage payout = payouts[_payoutId];\n        supports = payout.supports[idx];\n    }\n\n///////////////////////\n// Payout functions\n///////////////////////\n    /**\n    * @dev This is the function that sets up who the candidates will be, and\n    *      where the funds will go for the payout. This is where the payout\n    *      object needs to be created in the payouts array.\n    * @notice Create a new account so you can begin creating allocations.\n    * @param _metadata Any relevent label for the payout\n    *\n    */\n    function newPayout( \n        string _metadata,\n        uint256 _limit,\n        address _token\n    ) external isInitialized auth(START_PAYOUT_ROLE) returns(uint256 payoutId)\n    {\n        payoutId = payouts.length++;\n        Payout storage payout = payouts[payoutId];\n        payout.metadata = _metadata;\n        payout.limit = _limit;\n        payout.token = _token;\n        payout.balance = 0;\n        FundForwarder fund = new FundForwarder(payoutId, address(this));\n        payout.proxy = address(fund);\n        emit NewAccount(payoutId); \n    }\n\n    function fund(uint256 id) external payable { \n        Payout storage payout = payouts[id];\n        require(!payout.informational);\n        payout.balance = payout.balance.add(msg.value);\n        emit FundAccount(id);\n    }\n\n    function runPayout(uint256 _payoutId) external payable isInitialized auth(EXECUTE_PAYOUT_ROLE) returns(bool success) {\n        Payout storage payout = payouts[_payoutId];\n        uint256 pointsPer;\n        uint256 totalSupport;\n        uint i;\n        for (i = 0; i < payout.supports.length; i++) {\n            totalSupport += payout.supports[i];\n        }\n\n        require(!payout.informational, \"Informational payouts don't run\");\n        require(payout.distSet, \"setDistribution must be called first\");\n        if (payout.recurring) {\n            // TDDO create payout execution counter to ensure payout time tracks payouts\n            uint256 payoutTime = payout.startTime.add(payout.period);\n            require(payoutTime < block.timestamp,\"payout period not yet finished\"); // solium-disable-line security/no-block-members\n            payout.startTime = payoutTime;\n        } else {\n            payout.distSet = false;\n        }\n\n        pointsPer = payout.amount.div(totalSupport);\n        //handle vault\n        for (i = 0; i < payout.candidateAddresses.length; i++) {\n            payout.candidateAddresses[i].transfer(payout.supports[i].mul(pointsPer));\n            payout.balance = payout.balance.sub(payout.supports[i].mul(pointsPer));\n        }\n        success = true;\n        emit PayoutExecuted(_payoutId);\n    }\n\n    /**\n    * @dev This is the function that the RangeVote will call. It doesnt need\n    *      to be called by a RangeVote (options get weird if it's not)\n    *      but for our use case the SET_DISTRIBUTION_ROLE will be given to\n    *      the RangeVote.\n    * @notice Sets the distribution for the given `payoutId` using an the\n    *         supplied candidate keys and support values.\n    * param _candidateKeys The array of keys for all candidates in this payout\n    * param _supports The Array of all support values for the various candidates\n    */\n    function setDistribution(\n        address[] _candidateAddresses,\n        uint256[] _supports,\n        uint256[] /*unused_infoIndices*/,\n        string /*unused_candidateInfo*/,\n        uint256[] /*unused_level 1 ID - converted to bytes32*/,\n        uint256[] /*unused_level 2 ID - converted to bytes32*/,\n        uint256 _payoutId,\n        bool _informational,\n        bool _recurring,\n        uint256 _period,\n        uint256 _amount\n    ) public payable isInitialized auth(SET_DISTRIBUTION_ROLE)\n    {\n        Payout storage payout = payouts[_payoutId];\n        payout.candidateAddresses = _candidateAddresses;\n        require(_amount <= payout.limit);  \n        payout.informational = _informational;\n        payout.recurring = _recurring;\n        if (!_informational) {\n            payout.balance.add(msg.value);\n            require(payout.balance >= _amount, \"payout account underfunded\");\n            require(payout.limit >= _amount, \"payout limit too low for amount\");\n        } else {\n            require(msg.value == 0, \"cannot fund informational allocation\");\n            payout.balance = 0;\n        }\n        if (_recurring) {\n            payout.period = _period;\n            // minimum granularity is a single day\n            // This check is disabled currently to enable testing of shorter times\n            //require(payout.period > 86399);\n            payout.startTime = block.timestamp; \n        } else {\n            payout.period = 0;\n        }\n\n        payout.distSet = true;\n        payout.supports = _supports;\n        payout.amount = _amount;\n        emit SetDistribution(_payoutId);\n    }\n\n}\n\n\n",
  "sourcePath": "/Users/ottodev/box/projects/AutarkLabs/planning-app/apps/allocations/contracts/Allocations.sol",
  "compiler": {
    "name": "solc",
    "version": "0.4.24+commit.e67f0147.Emscripten.clang"
  },
  "schemaVersion": "2.0.1",
  "updatedAt": "2019-02-03T01:56:53.173Z"
}