{
  "contractName": "Allocations",
  "abi": [
    {
      "constant": true,
      "inputs": [],
      "name": "EXECUTE_ALLOCATION_ROLE",
      "outputs": [
        {
          "name": "",
          "type": "bytes32"
        }
      ],
      "payable": false,
      "stateMutability": "view",
      "type": "function"
    },
    {
      "constant": true,
      "inputs": [],
      "name": "hasInitialized",
      "outputs": [
        {
          "name": "",
          "type": "bool"
        }
      ],
      "payable": false,
      "stateMutability": "view",
      "type": "function"
    },
    {
      "constant": true,
      "inputs": [
        {
          "name": "_script",
          "type": "bytes"
        }
      ],
      "name": "getEVMScriptExecutor",
      "outputs": [
        {
          "name": "",
          "type": "address"
        }
      ],
      "payable": false,
      "stateMutability": "view",
      "type": "function"
    },
    {
      "constant": true,
      "inputs": [],
      "name": "getRecoveryVault",
      "outputs": [
        {
          "name": "",
          "type": "address"
        }
      ],
      "payable": false,
      "stateMutability": "view",
      "type": "function"
    },
    {
      "constant": true,
      "inputs": [
        {
          "name": "token",
          "type": "address"
        }
      ],
      "name": "allowRecoverability",
      "outputs": [
        {
          "name": "",
          "type": "bool"
        }
      ],
      "payable": false,
      "stateMutability": "view",
      "type": "function"
    },
    {
      "constant": true,
      "inputs": [],
      "name": "appId",
      "outputs": [
        {
          "name": "",
          "type": "bytes32"
        }
      ],
      "payable": false,
      "stateMutability": "view",
      "type": "function"
    },
    {
      "constant": true,
      "inputs": [],
      "name": "getInitializationBlock",
      "outputs": [
        {
          "name": "",
          "type": "uint256"
        }
      ],
      "payable": false,
      "stateMutability": "view",
      "type": "function"
    },
    {
      "constant": false,
      "inputs": [
        {
          "name": "_token",
          "type": "address"
        }
      ],
      "name": "transferToVault",
      "outputs": [],
      "payable": false,
      "stateMutability": "nonpayable",
      "type": "function"
    },
    {
      "constant": true,
      "inputs": [
        {
          "name": "_sender",
          "type": "address"
        },
        {
          "name": "_role",
          "type": "bytes32"
        },
        {
          "name": "_params",
          "type": "uint256[]"
        }
      ],
      "name": "canPerform",
      "outputs": [
        {
          "name": "",
          "type": "bool"
        }
      ],
      "payable": false,
      "stateMutability": "view",
      "type": "function"
    },
    {
      "constant": true,
      "inputs": [],
      "name": "getEVMScriptRegistry",
      "outputs": [
        {
          "name": "",
          "type": "address"
        }
      ],
      "payable": false,
      "stateMutability": "view",
      "type": "function"
    },
    {
      "constant": true,
      "inputs": [],
      "name": "kernel",
      "outputs": [
        {
          "name": "",
          "type": "address"
        }
      ],
      "payable": false,
      "stateMutability": "view",
      "type": "function"
    },
    {
      "constant": true,
      "inputs": [],
      "name": "isPetrified",
      "outputs": [
        {
          "name": "",
          "type": "bool"
        }
      ],
      "payable": false,
      "stateMutability": "view",
      "type": "function"
    },
    {
      "constant": true,
      "inputs": [],
      "name": "CREATE_ACCOUNT_ROLE",
      "outputs": [
        {
          "name": "",
          "type": "bytes32"
        }
      ],
      "payable": false,
      "stateMutability": "view",
      "type": "function"
    },
    {
      "constant": true,
      "inputs": [],
      "name": "addressBook",
      "outputs": [
        {
          "name": "",
          "type": "address"
        }
      ],
      "payable": false,
      "stateMutability": "view",
      "type": "function"
    },
    {
      "constant": true,
      "inputs": [],
      "name": "SET_DISTRIBUTION_ROLE",
      "outputs": [
        {
          "name": "",
          "type": "bytes32"
        }
      ],
      "payable": false,
      "stateMutability": "view",
      "type": "function"
    },
    {
      "anonymous": false,
      "inputs": [
        {
          "indexed": false,
          "name": "accountId",
          "type": "uint256"
        },
        {
          "indexed": false,
          "name": "payoutId",
          "type": "uint256"
        }
      ],
      "name": "PayoutExecuted",
      "type": "event"
    },
    {
      "anonymous": false,
      "inputs": [
        {
          "indexed": false,
          "name": "accountId",
          "type": "uint256"
        }
      ],
      "name": "NewAccount",
      "type": "event"
    },
    {
      "anonymous": false,
      "inputs": [
        {
          "indexed": false,
          "name": "accountId",
          "type": "uint256"
        }
      ],
      "name": "FundAccount",
      "type": "event"
    },
    {
      "anonymous": false,
      "inputs": [
        {
          "indexed": false,
          "name": "accountId",
          "type": "uint256"
        },
        {
          "indexed": false,
          "name": "payoutId",
          "type": "uint256"
        }
      ],
      "name": "SetDistribution",
      "type": "event"
    },
    {
      "anonymous": false,
      "inputs": [
        {
          "indexed": true,
          "name": "executor",
          "type": "address"
        },
        {
          "indexed": false,
          "name": "script",
          "type": "bytes"
        },
        {
          "indexed": false,
          "name": "input",
          "type": "bytes"
        },
        {
          "indexed": false,
          "name": "returnData",
          "type": "bytes"
        }
      ],
      "name": "ScriptResult",
      "type": "event"
    },
    {
      "constant": false,
      "inputs": [
        {
          "name": "_addressBook",
          "type": "address"
        }
      ],
      "name": "initialize",
      "outputs": [],
      "payable": false,
      "stateMutability": "nonpayable",
      "type": "function"
    },
    {
      "constant": true,
      "inputs": [
        {
          "name": "_accountId",
          "type": "uint256"
        }
      ],
      "name": "getAccount",
      "outputs": [
        {
          "name": "balance",
          "type": "uint256"
        },
        {
          "name": "limit",
          "type": "uint256"
        },
        {
          "name": "metadata",
          "type": "string"
        },
        {
          "name": "token",
          "type": "address"
        },
        {
          "name": "proxy",
          "type": "address"
        },
        {
          "name": "amount",
          "type": "uint256"
        }
      ],
      "payable": false,
      "stateMutability": "view",
      "type": "function"
    },
    {
      "constant": true,
      "inputs": [
        {
          "name": "_accountId",
          "type": "uint256"
        },
        {
          "name": "_payoutId",
          "type": "uint256"
        }
      ],
      "name": "getPayout",
      "outputs": [
        {
          "name": "amount",
          "type": "uint256"
        },
        {
          "name": "recurring",
          "type": "bool"
        },
        {
          "name": "startTime",
          "type": "uint256"
        },
        {
          "name": "period",
          "type": "uint256"
        },
        {
          "name": "distSet",
          "type": "bool"
        },
        {
          "name": "description",
          "type": "string"
        }
      ],
      "payable": false,
      "stateMutability": "view",
      "type": "function"
    },
    {
      "constant": true,
      "inputs": [
        {
          "name": "_accountId",
          "type": "uint256"
        },
        {
          "name": "_payoutId",
          "type": "uint256"
        }
      ],
      "name": "getNumberOfCandidates",
      "outputs": [
        {
          "name": "numCandidates",
          "type": "uint256"
        }
      ],
      "payable": false,
      "stateMutability": "view",
      "type": "function"
    },
    {
      "constant": true,
      "inputs": [
        {
          "name": "_accountId",
          "type": "uint256"
        },
        {
          "name": "_payoutId",
          "type": "uint256"
        },
        {
          "name": "idx",
          "type": "uint256"
        }
      ],
      "name": "getPayoutDistributionValue",
      "outputs": [
        {
          "name": "supports",
          "type": "uint256"
        }
      ],
      "payable": false,
      "stateMutability": "view",
      "type": "function"
    },
    {
      "constant": false,
      "inputs": [
        {
          "name": "_metadata",
          "type": "string"
        },
        {
          "name": "_limit",
          "type": "uint256"
        },
        {
          "name": "_token",
          "type": "address"
        }
      ],
      "name": "newAccount",
      "outputs": [
        {
          "name": "accountId",
          "type": "uint256"
        }
      ],
      "payable": false,
      "stateMutability": "nonpayable",
      "type": "function"
    },
    {
      "constant": false,
      "inputs": [
        {
          "name": "id",
          "type": "uint256"
        }
      ],
      "name": "fund",
      "outputs": [],
      "payable": true,
      "stateMutability": "payable",
      "type": "function"
    },
    {
      "constant": false,
      "inputs": [
        {
          "name": "_accountId",
          "type": "uint256"
        },
        {
          "name": "_payoutId",
          "type": "uint256"
        }
      ],
      "name": "runPayout",
      "outputs": [
        {
          "name": "success",
          "type": "bool"
        }
      ],
      "payable": false,
      "stateMutability": "nonpayable",
      "type": "function"
    },
    {
      "constant": false,
      "inputs": [
        {
          "name": "_candidateAddresses",
          "type": "address[]"
        },
        {
          "name": "_supports",
          "type": "uint256[]"
        },
        {
          "name": "",
          "type": "uint256[]"
        },
        {
          "name": "",
          "type": "string"
        },
        {
          "name": "_description",
          "type": "string"
        },
        {
          "name": "",
          "type": "uint256[]"
        },
        {
          "name": "",
          "type": "uint256[]"
        },
        {
          "name": "_accountId",
          "type": "uint256"
        },
        {
          "name": "_recurring",
          "type": "bool"
        },
        {
          "name": "_period",
          "type": "uint256"
        },
        {
          "name": "_amount",
          "type": "uint256"
        }
      ],
      "name": "setDistribution",
      "outputs": [
        {
          "name": "payoutId",
          "type": "uint256"
        }
      ],
      "payable": false,
      "stateMutability": "nonpayable",
      "type": "function"
    }
  ],
  "bytecode": "0x60806040526200001d62000023640100000000026401000000009004565b62000309565b60006200003e6200015e640100000000026401000000009004565b146040805190810160405280601881526020017f494e49545f414c52454144595f494e495449414c495a4544000000000000000081525090151562000121576040517f08c379a00000000000000000000000000000000000000000000000000000000081526004018080602001828103825283818151815260200191508051906020019080838360005b83811015620000e5578082015181840152602081019050620000c8565b50505050905090810190601f168015620001135780820380516001836020036101000a031916815260200191505b509250505060405180910390fd5b506200015c7fffffffffffffffffffffffffffffffffffffffffffffffffffffffffffffffff620001ab640100000000026401000000009004565b565b6000620001a67febb05b386a8d34882b8711d156f463690983dc47815980fb82aeeff1aa43579e60010260001916620002f76401000000000262002c51176401000000009004565b905090565b6000620001c66200015e640100000000026401000000009004565b146040805190810160405280601881526020017f494e49545f414c52454144595f494e495449414c495a45440000000000000000815250901515620002a9576040517f08c379a00000000000000000000000000000000000000000000000000000000081526004018080602001828103825283818151815260200191508051906020019080838360005b838110156200026d57808201518184015260208101905062000250565b50505050905090810190601f1680156200029b5780820380516001836020036101000a031916815260200191505b509250505060405180910390fd5b50620002f4817febb05b386a8d34882b8711d156f463690983dc47815980fb82aeeff1aa43579e60010260001916620003026401000000000262002de6179091906401000000009004565b50565b600081549050919050565b8082555050565b61346b80620003196000396000f30060806040526004361061013e576000357c0100000000000000000000000000000000000000000000000000000000900463ffffffff1680630648bb47146101435780630803fac0146101765780631cb29d1a146101a55780632914b9bd146101f457806332f0a3b51461029d5780633b517855146102f45780634c619e4c146105305780637e7db6e11461060b57806380afdea8146106665780638b3dd749146106995780639d4941d8146106c4578063a1658fad14610707578063a479e508146107b3578063ae64863a1461080a578063bb74da6614610883578063c4d66de8146108ce578063c8319f7e14610911578063ca1d209d14610966578063ce88b14514610986578063d4aae0c414610aa7578063de4796ed14610afe578063e212029414610b2d578063f5887cdd14610b60578063fe3b501214610bb7575b600080fd5b34801561014f57600080fd5b50610158610bea565b60405180826000191660001916815260200191505060405180910390f35b34801561018257600080fd5b5061018b610c23565b604051808215151515815260200191505060405180910390f35b3480156101b157600080fd5b506101da6004803603810190808035906020019092919080359060200190929190505050610c4e565b604051808215151515815260200191505060405180910390f35b34801561020057600080fd5b5061025b600480360381019080803590602001908201803590602001908080601f01602080910402602001604051908101604052809392919081815260200183838082843782019150505050505091929192905050506111d8565b604051808273ffffffffffffffffffffffffffffffffffffffff1673ffffffffffffffffffffffffffffffffffffffff16815260200191505060405180910390f35b3480156102a957600080fd5b506102b26112f7565b604051808273ffffffffffffffffffffffffffffffffffffffff1673ffffffffffffffffffffffffffffffffffffffff16815260200191505060405180910390f35b34801561030057600080fd5b5061051a600480360381019080803590602001908201803590602001908080602002602001604051908101604052809392919081815260200183836020028082843782019150505050505091929192908035906020019082018035906020019080806020026020016040519081016040528093929190818152602001838360200280828437820191505050505050919291929080359060200190820180359060200190808060200260200160405190810160405280939291908181526020018383602002808284378201915050505050509192919290803590602001908201803590602001908080601f0160208091040260200160405190810160405280939291908181526020018383808284378201915050505050509192919290803590602001908201803590602001908080601f016020809104026020016040519081016040528093929190818152602001838380828437820191505050505050919291929080359060200190820180359060200190808060200260200160405190810160405280939291908181526020018383602002808284378201915050505050509192919290803590602001908201803590602001908080602002602001604051908101604052809392919081815260200183836020028082843782019150505050505091929192908035906020019092919080351515906020019092919080359060200190929190803590602001909291905050506113a4565b6040518082815260200191505060405180910390f35b34801561053c57600080fd5b506105656004803603810190808035906020019092919080359060200190929190505050611756565b60405180878152602001861515151581526020018581526020018481526020018315151515815260200180602001828103825283818151815260200191508051906020019080838360005b838110156105cb5780820151818401526020810190506105b0565b50505050905090810190601f1680156105f85780820380516001836020036101000a031916815260200191505b5097505050505050505060405180910390f35b34801561061757600080fd5b5061064c600480360381019080803573ffffffffffffffffffffffffffffffffffffffff169060200190929190505050611886565b604051808215151515815260200191505060405180910390f35b34801561067257600080fd5b5061067b611891565b60405180826000191660001916815260200191505060405180910390f35b3480156106a557600080fd5b506106ae6118c8565b6040518082815260200191505060405180910390f35b3480156106d057600080fd5b50610705600480360381019080803573ffffffffffffffffffffffffffffffffffffffff1690602001909291905050506118ff565b005b34801561071357600080fd5b50610799600480360381019080803573ffffffffffffffffffffffffffffffffffffffff169060200190929190803560001916906020019092919080359060200190820180359060200190808060200260200160405190810160405280939291908181526020018383602002808284378201915050505050509192919290505050611d31565b604051808215151515815260200191505060405180910390f35b3480156107bf57600080fd5b506107c8611f38565b604051808273ffffffffffffffffffffffffffffffffffffffff1673ffffffffffffffffffffffffffffffffffffffff16815260200191505060405180910390f35b34801561081657600080fd5b5061086d60048036038101908080359060200190820180359060200191909192939192939080359060200190929190803573ffffffffffffffffffffffffffffffffffffffff169060200190929190505050612053565b6040518082815260200191505060405180910390f35b34801561088f57600080fd5b506108b8600480360381019080803590602001909291908035906020019092919050505061239a565b6040518082815260200191505060405180910390f35b3480156108da57600080fd5b5061090f600480360381019080803573ffffffffffffffffffffffffffffffffffffffff1690602001909291905050506123eb565b005b34801561091d57600080fd5b50610950600480360381019080803590602001909291908035906020019092919080359060200190929190505050612535565b6040518082815260200191505060405180910390f35b6109846004803603810190808035906020019092919050505061259b565b005b34801561099257600080fd5b506109b160048036038101908080359060200190929190505050612616565b60405180878152602001868152602001806020018573ffffffffffffffffffffffffffffffffffffffff1673ffffffffffffffffffffffffffffffffffffffff1681526020018473ffffffffffffffffffffffffffffffffffffffff1673ffffffffffffffffffffffffffffffffffffffff168152602001838152602001828103825286818151815260200191508051906020019080838360005b83811015610a67578082015181840152602081019050610a4c565b50505050905090810190601f168015610a945780820380516001836020036101000a031916815260200191505b5097505050505050505060405180910390f35b348015610ab357600080fd5b50610abc612745565b604051808273ffffffffffffffffffffffffffffffffffffffff1673ffffffffffffffffffffffffffffffffffffffff16815260200191505060405180910390f35b348015610b0a57600080fd5b50610b1361277c565b604051808215151515815260200191505060405180910390f35b348015610b3957600080fd5b50610b426127ad565b60405180826000191660001916815260200191505060405180910390f35b348015610b6c57600080fd5b50610b756127e6565b604051808273ffffffffffffffffffffffffffffffffffffffff1673ffffffffffffffffffffffffffffffffffffffff16815260200191505060405180910390f35b348015610bc357600080fd5b50610bcc61280b565b60405180826000191660001916815260200191505060405180910390f35b60405180807f455845435554455f5041594f55545f524f4c45000000000000000000000000008152506013019050604051809103902081565b600080610c2e6118c8565b905060008114158015610c48575080610c45612844565b10155b91505090565b60008060008060008060008060405180807f455845435554455f5041594f55545f524f4c450000000000000000000000000081525060130190506040518091039020610ccb33826000604051908082528060200260200182016040528015610cc55781602001602082028038833980820191505090505b50611d31565b6040805190810160405280600f81526020017f4150505f415554485f4641494c45440000000000000000000000000000000000815250901515610da9576040517f08c379a00000000000000000000000000000000000000000000000000000000081526004018080602001828103825283818151815260200191508051906020019080838360005b83811015610d6e578082015181840152602081019050610d53565b50505050905090810190601f168015610d9b5780820380516001836020036101000a031916815260200191505b509250505060405180910390fd5b5060018b815481101515610db957fe5b90600052602060002090600602019750876000018a815481101515610dda57fe5b90600052602060002090600902019650600094505b8660020180549050851015610e2b578660020185815481101515610e0f57fe5b9060005260206000200154860195508480600101955050610def565b8660070160009054906101000a900460ff161515610e4857600080fd5b8660030160009054906101000a900460ff1615610f0157610e7a8760040154886006015461284c90919063ffffffff16565b93504284101515610ef3576040517f08c379a000000000000000000000000000000000000000000000000000000000815260040180806020018281038252601e8152602001807f7061796f757420706572696f64206e6f74207965742066696e6973686564000081525060200191505060405180910390fd5b838760060181905550610f1f565b60008760070160006101000a81548160ff0219169083151502179055505b600094505b866001018054905085101561118757610f7786610f6989600501548a60020189815481101515610f5057fe5b906000526020600020015461294190919063ffffffff16565b612a5390919063ffffffff16565b92506000600360008960010188815481101515610f9057fe5b9060005260206000200160009054906101000a900473ffffffffffffffffffffffffffffffffffffffff1673ffffffffffffffffffffffffffffffffffffffff1673ffffffffffffffffffffffffffffffffffffffff1681526020019081526020016000205411156110d857600160036000896001018881548110151561101357fe5b9060005260206000200160009054906101000a900473ffffffffffffffffffffffffffffffffffffffff1673ffffffffffffffffffffffffffffffffffffffff1673ffffffffffffffffffffffffffffffffffffffff1681526020019081526020016000205481548110151561108557fe5b906000526020600020906006020191506110ac83836003015461284c90919063ffffffff16565b82600301819055506110cb838960030154612b5190919063ffffffff16565b886003018190555061117a565b86600101858154811015156110e957fe5b9060005260206000200160009054906101000a900473ffffffffffffffffffffffffffffffffffffffff1673ffffffffffffffffffffffffffffffffffffffff166108fc849081150290604051600060405180830381858888f19350505050158015611159573d6000803e3d6000fd5b50611171838960030154612b5190919063ffffffff16565b88600301819055505b8480600101955050610f24565b600198507f83d00233f6accba2fd7dc7b1a4c09e168bb7fafadc5aeb2cdfa4a6a85d85eafe8b8b604051808381526020018281526020019250505060405180910390a1505050505050505092915050565b60006111e2611f38565b73ffffffffffffffffffffffffffffffffffffffff166304bf2a7f836040518263ffffffff167c01000000000000000000000000000000000000000000000000000000000281526004018080602001828103825283818151815260200191508051906020019080838360005b8381101561126957808201518184015260208101905061124e565b50505050905090810190601f1680156112965780820380516001836020036101000a031916815260200191505b5092505050602060405180830381600087803b1580156112b557600080fd5b505af11580156112c9573d6000803e3d6000fd5b505050506040513d60208110156112df57600080fd5b81019080805190602001909291905050509050919050565b6000611301612745565b73ffffffffffffffffffffffffffffffffffffffff166332f0a3b56040518163ffffffff167c0100000000000000000000000000000000000000000000000000000000028152600401602060405180830381600087803b15801561136457600080fd5b505af1158015611378573d6000803e3d6000fd5b505050506040513d602081101561138e57600080fd5b8101908080519060200190929190505050905090565b600080600060405180807f5345545f444953545249425554494f4e5f524f4c4500000000000000000000008152506015019050604051809103902061141a338260006040519080825280602002602001820160405280156114145781602001602082028038833980820191505090505b50611d31565b6040805190810160405280600f81526020017f4150505f415554485f4641494c454400000000000000000000000000000000008152509015156114f8576040517f08c379a00000000000000000000000000000000000000000000000000000000081526004018080602001828103825283818151815260200191508051906020019080838360005b838110156114bd5780820151818401526020810190506114a2565b50505050905090810190601f1680156114ea5780820380516001836020036101000a031916815260200191505b509250505060405180910390fd5b5060018881548110151561150857fe5b90600052602060002090600602019250826000018360000180548091906001016115329190612ded565b81548110151561153e57fe5b90600052602060002090600902019150848360030154101515156115ca576040517f08c379a000000000000000000000000000000000000000000000000000000000815260040180806020018281038252601a8152602001807f7061796f7574206163636f756e7420756e64657266756e64656400000000000081525060200191505060405180910390fd5b84836002015410151515611646576040517f08c379a00000000000000000000000000000000000000000000000000000000081526004018080602001828103825260208152602001807f7061796f757420616d6f756e74206f766572206163636f756e74206c696d697481525060200191505060405180910390fd5b848260050181905550868260030160006101000a81548160ff0219169083151502179055508e826001019080519060200190611683929190612e1f565b5086156116a1578582600401819055504282600601819055506116ac565b600082600401819055505b60018260070160006101000a81548160ff0219169083151502179055508d8260020190805190602001906116e1929190612ea9565b508a8260080190805190602001906116fa929190612ef6565b507fb3351d99c1f746d4a0198cc4948ee6a0ad495e662d9866ab8684521caf00bb98886001856000018054905003604051808381526020018281526020019250505060405180910390a15050509b9a5050505050505050505050565b60008060008060006060600060018981548110151561177157fe5b90600052602060002090600602016000018881548110151561178f57fe5b9060005260206000209060090201905080600501549650806006015494508060030160009054906101000a900460ff169550806004015493508060070160009054906101000a900460ff169250806008018054600181600116156101000203166002900480601f0160208091040260200160405190810160405280929190818152602001828054600181600116156101000203166002900480156118745780601f1061184957610100808354040283529160200191611874565b820191906000526020600020905b81548152906001019060200180831161185757829003601f168201915b50505050509150509295509295509295565b600060019050919050565b60006118c37fd625496217aa6a3453eecb9c3489dc5a53e6c67b444329ea2b2cbc9ff547639b60010260001916612c46565b905090565b60006118fa7febb05b386a8d34882b8711d156f463690983dc47815980fb82aeeff1aa43579e60010260001916612c51565b905090565b60008061190b83611886565b6040805190810160405280601281526020017f5245434f5645525f444953414c4c4f57454400000000000000000000000000008152509015156119e9576040517f08c379a00000000000000000000000000000000000000000000000000000000081526004018080602001828103825283818151815260200191508051906020019080838360005b838110156119ae578082015181840152602081019050611993565b50505050905090810190601f1680156119db5780820380516001836020036101000a031916815260200191505b509250505060405180910390fd5b506119f26112f7565b91506119fd82612c5c565b6040805190810160405280601a81526020017f5245434f5645525f5641554c545f4e4f545f434f4e5452414354000000000000815250901515611adb576040517f08c379a00000000000000000000000000000000000000000000000000000000081526004018080602001828103825283818151815260200191508051906020019080838360005b83811015611aa0578082015181840152602081019050611a85565b50505050905090810190601f168015611acd5780820380516001836020036101000a031916815260200191505b509250505060405180910390fd5b50600073ffffffffffffffffffffffffffffffffffffffff168373ffffffffffffffffffffffffffffffffffffffff161415611b74578173ffffffffffffffffffffffffffffffffffffffff166108fc3073ffffffffffffffffffffffffffffffffffffffff16319081150290604051600060405180830381858888f19350505050158015611b6e573d6000803e3d6000fd5b50611d2c565b8273ffffffffffffffffffffffffffffffffffffffff166370a08231306040518263ffffffff167c0100000000000000000000000000000000000000000000000000000000028152600401808273ffffffffffffffffffffffffffffffffffffffff1673ffffffffffffffffffffffffffffffffffffffff168152602001915050602060405180830381600087803b158015611c0f57600080fd5b505af1158015611c23573d6000803e3d6000fd5b505050506040513d6020811015611c3957600080fd5b810190808051906020019092919050505090508273ffffffffffffffffffffffffffffffffffffffff1663a9059cbb83836040518363ffffffff167c0100000000000000000000000000000000000000000000000000000000028152600401808373ffffffffffffffffffffffffffffffffffffffff1673ffffffffffffffffffffffffffffffffffffffff16815260200182815260200192505050602060405180830381600087803b158015611cef57600080fd5b505af1158015611d03573d6000803e3d6000fd5b505050506040513d6020811015611d1957600080fd5b8101908080519060200190929190505050505b505050565b60008060606000611d40610c23565b1515611d4f5760009350611f2e565b611d57612745565b9250600073ffffffffffffffffffffffffffffffffffffffff168373ffffffffffffffffffffffffffffffffffffffff161415611d975760009350611f2e565b602085510290508491508082528273ffffffffffffffffffffffffffffffffffffffff1663fdef9106883089866040518563ffffffff167c0100000000000000000000000000000000000000000000000000000000028152600401808573ffffffffffffffffffffffffffffffffffffffff1673ffffffffffffffffffffffffffffffffffffffff1681526020018473ffffffffffffffffffffffffffffffffffffffff1673ffffffffffffffffffffffffffffffffffffffff168152602001836000191660001916815260200180602001828103825283818151815260200191508051906020019080838360005b83811015611ea1578082015181840152602081019050611e86565b50505050905090810190601f168015611ece5780820380516001836020036101000a031916815260200191505b5095505050505050602060405180830381600087803b158015611ef057600080fd5b505af1158015611f04573d6000803e3d6000fd5b505050506040513d6020811015611f1a57600080fd5b810190808051906020019092919050505093505b5050509392505050565b600080611f43612745565b73ffffffffffffffffffffffffffffffffffffffff1663be00bbd87fd6f028ca0e8edb4a8c9757ca4fdccab25fa1e0317da1188108f7d2dee14902fb6001027fddbcfd564f642ab5627cf68b9b7d374fb4f8a36e941a75d89c87998cef03bd616001026040518363ffffffff167c0100000000000000000000000000000000000000000000000000000000028152600401808360001916600019168152602001826000191660001916815260200192505050602060405180830381600087803b15801561200f57600080fd5b505af1158015612023573d6000803e3d6000fd5b505050506040513d602081101561203957600080fd5b810190808051906020019092919050505090508091505090565b600080600060405180807f53544152545f5041594f55545f524f4c45000000000000000000000000000000815250601101905060405180910390206120c9338260006040519080825280602002602001820160405280156120c35781602001602082028038833980820191505090505b50611d31565b6040805190810160405280600f81526020017f4150505f415554485f4641494c454400000000000000000000000000000000008152509015156121a7576040517f08c379a00000000000000000000000000000000000000000000000000000000081526004018080602001828103825283818151815260200191508051906020019080838360005b8381101561216c578082015181840152602081019050612151565b50505050905090810190601f1680156121995780820380516001836020036101000a031916815260200191505b509250505060405180910390fd5b50600180548091906001016121bc9190612f76565b93506001848154811015156121cd57fe5b9060005260206000209060060201925087878460010191906121f0929190612fa8565b50858360020181905550848360040160006101000a81548173ffffffffffffffffffffffffffffffffffffffff021916908373ffffffffffffffffffffffffffffffffffffffff160217905550600083600301819055508330612251613028565b808381526020018273ffffffffffffffffffffffffffffffffffffffff1673ffffffffffffffffffffffffffffffffffffffff16815260200192505050604051809103906000f0801580156122aa573d6000803e3d6000fd5b509150818360050160006101000a81548173ffffffffffffffffffffffffffffffffffffffff021916908373ffffffffffffffffffffffffffffffffffffffff16021790555083600360008560050160009054906101000a900473ffffffffffffffffffffffffffffffffffffffff1673ffffffffffffffffffffffffffffffffffffffff1673ffffffffffffffffffffffffffffffffffffffff168152602001908152602001600020819055507f4dd40a488a410554835be3689f2fffba01db70ca79a6e01779722b8171968727846040518082815260200191505060405180910390a1505050949350505050565b6000806001848154811015156123ac57fe5b9060005260206000209060060201600001838154811015156123ca57fe5b90600052602060002090600902019050806002018054905091505092915050565b60006123f56118c8565b146040805190810160405280601881526020017f494e49545f414c52454144595f494e495449414c495a454400000000000000008152509015156124d4576040517f08c379a00000000000000000000000000000000000000000000000000000000081526004018080602001828103825283818151815260200191508051906020019080838360005b8381101561249957808201518184015260208101905061247e565b50505050905090810190601f1680156124c65780820380516001836020036101000a031916815260200191505b509250505060405180910390fd5b50806000806101000a81548173ffffffffffffffffffffffffffffffffffffffff021916908373ffffffffffffffffffffffffffffffffffffffff160217905550600180548091906001016125299190612f76565b50612532612cae565b50565b60008060018581548110151561254757fe5b90600052602060002090600602016000018481548110151561256557fe5b90600052602060002090600902019050806002018381548110151561258657fe5b90600052602060002001549150509392505050565b60006001828154811015156125ac57fe5b906000526020600020906006020190506125d334826003015461284c90919063ffffffff16565b81600301819055507f40db677cfdb60d4c50bee042739bcdc73f449a0247722b722cf4a2388a21c787826040518082815260200191505060405180910390a15050565b600080606060008060008060018881548110151561263057fe5b906000526020600020906006020190508060020154955080600301549650806001018054600181600116156101000203166002900480601f0160208091040260200160405190810160405280929190818152602001828054600181600116156101000203166002900480156126e65780601f106126bb576101008083540402835291602001916126e6565b820191906000526020600020905b8154815290600101906020018083116126c957829003601f168201915b505050505094508060040160009054906101000a900473ffffffffffffffffffffffffffffffffffffffff1693508060050160009054906101000a900473ffffffffffffffffffffffffffffffffffffffff1692505091939550919395565b60006127777f4172f0f7d2289153072b0a6ca36959e0cbe2efc3afe50fc81636caa96338137b60010260001916612ddb565b905090565b60007fffffffffffffffffffffffffffffffffffffffffffffffffffffffffffffffff6127a76118c8565b14905090565b60405180807f53544152545f5041594f55545f524f4c450000000000000000000000000000008152506011019050604051809103902081565b6000809054906101000a900473ffffffffffffffffffffffffffffffffffffffff1681565b60405180807f5345545f444953545249425554494f4e5f524f4c4500000000000000000000008152506015019050604051809103902081565b600043905090565b6000808284019050838110156040805190810160405280601181526020017f4d4154485f4144445f4f564552464c4f57000000000000000000000000000000815250901515612936576040517f08c379a00000000000000000000000000000000000000000000000000000000081526004018080602001828103825283818151815260200191508051906020019080838360005b838110156128fb5780820151818401526020810190506128e0565b50505050905090810190601f1680156129285780820380516001836020036101000a031916815260200191505b509250505060405180910390fd5b508091505092915050565b60008060008414156129565760009150612a4c565b828402905082848281151561296757fe5b04146040805190810160405280601181526020017f4d4154485f4d554c5f4f564552464c4f57000000000000000000000000000000815250901515612a47576040517f08c379a00000000000000000000000000000000000000000000000000000000081526004018080602001828103825283818151815260200191508051906020019080838360005b83811015612a0c5780820151818401526020810190506129f1565b50505050905090810190601f168015612a395780820380516001836020036101000a031916815260200191505b509250505060405180910390fd5b508091505b5092915050565b600080600083116040805190810160405280600d81526020017f4d4154485f4449565f5a45524f00000000000000000000000000000000000000815250901515612b38576040517f08c379a00000000000000000000000000000000000000000000000000000000081526004018080602001828103825283818151815260200191508051906020019080838360005b83811015612afd578082015181840152602081019050612ae2565b50505050905090810190601f168015612b2a5780820380516001836020036101000a031916815260200191505b509250505060405180910390fd5b508284811515612b4457fe5b0490508091505092915050565b600080838311156040805190810160405280601281526020017f4d4154485f5355425f554e444552464c4f570000000000000000000000000000815250901515612c36576040517f08c379a00000000000000000000000000000000000000000000000000000000081526004018080602001828103825283818151815260200191508051906020019080838360005b83811015612bfb578082015181840152602081019050612be0565b50505050905090810190601f168015612c285780820380516001836020036101000a031916815260200191505b509250505060405180910390fd5b5082840390508091505092915050565b600081549050919050565b600081549050919050565b600080600073ffffffffffffffffffffffffffffffffffffffff168373ffffffffffffffffffffffffffffffffffffffff161415612c9d5760009150612ca8565b823b90506000811191505b50919050565b6000612cb86118c8565b146040805190810160405280601881526020017f494e49545f414c52454144595f494e495449414c495a45440000000000000000815250901515612d97576040517f08c379a00000000000000000000000000000000000000000000000000000000081526004018080602001828103825283818151815260200191508051906020019080838360005b83811015612d5c578082015181840152602081019050612d41565b50505050905090810190601f168015612d895780820380516001836020036101000a031916815260200191505b509250505060405180910390fd5b50612dd9612da3612844565b7febb05b386a8d34882b8711d156f463690983dc47815980fb82aeeff1aa43579e60010260001916612de690919063ffffffff16565b565b600081549050919050565b8082555050565b815481835581811115612e1a57600902816009028360005260206000209182019101612e199190613038565b5b505050565b828054828255906000526020600020908101928215612e98579160200282015b82811115612e975782518260006101000a81548173ffffffffffffffffffffffffffffffffffffffff021916908373ffffffffffffffffffffffffffffffffffffffff16021790555091602001919060010190612e3f565b5b509050612ea591906130d7565b5090565b828054828255906000526020600020908101928215612ee5579160200282015b82811115612ee4578251825591602001919060010190612ec9565b5b509050612ef2919061311a565b5090565b828054600181600116156101000203166002900490600052602060002090601f016020900481019282601f10612f3757805160ff1916838001178555612f65565b82800160010185558215612f65579182015b82811115612f64578251825591602001919060010190612f49565b5b509050612f72919061311a565b5090565b815481835581811115612fa357600602816006028360005260206000209182019101612fa2919061313f565b5b505050565b828054600181600116156101000203166002900490600052602060002090601f016020900481019282601f10612fe957803560ff1916838001178555613017565b82800160010185558215613017579182015b82811115613016578235825591602001919060010190612ffb565b5b509050613024919061311a565b5090565b60405161016f806132d183390190565b6130d491905b808211156130d0576000808201600061305791906131dc565b60018201600061306791906131fd565b600282016000613077919061321e565b6003820160006101000a81549060ff02191690556004820160009055600582016000905560068201600090556007820160006101000a81549060ff02191690556008820160006130c7919061323f565b5060090161303e565b5090565b90565b61311791905b8082111561311357600081816101000a81549073ffffffffffffffffffffffffffffffffffffffff0219169055506001016130dd565b5090565b90565b61313c91905b80821115613138576000816000905550600101613120565b5090565b90565b6131d991905b808211156131d5576000808201600061315e9190613287565b60018201600061316e919061323f565b600282016000905560038201600090556004820160006101000a81549073ffffffffffffffffffffffffffffffffffffffff02191690556005820160006101000a81549073ffffffffffffffffffffffffffffffffffffffff021916905550600601613145565b5090565b90565b50805460008255906000526020600020908101906131fa91906132ab565b50565b508054600082559060005260206000209081019061321b919061311a565b50565b508054600082559060005260206000209081019061323c919061311a565b50565b50805460018160011615610100020316600290046000825580601f106132655750613284565b601f016020900490600052602060002090810190613283919061311a565b5b50565b50805460008255600902906000526020600020908101906132a89190613038565b50565b6132cd91905b808211156132c95760008160009055506001016132b1565b5090565b905600608060405234801561001057600080fd5b5060405160408061016f8339810180604052810190808051906020019092919080519060200190929190505050806000806101000a81548173ffffffffffffffffffffffffffffffffffffffff021916908373ffffffffffffffffffffffffffffffffffffffff16021790555081600181905550505060db806100946000396000f30060806040526000809054906101000a900473ffffffffffffffffffffffffffffffffffffffff1673ffffffffffffffffffffffffffffffffffffffff1663ca1d209d346001546040518363ffffffff167c0100000000000000000000000000000000000000000000000000000000028152600401808281526020019150506000604051808303818588803b158015609557600080fd5b505af115801560a8573d6000803e3d6000fd5b50505050500000a165627a7a7230582051fa0e06306e65d78574ca5b630717b36ca26daa9866b184b875b0a6e8f07b040029a165627a7a7230582021e45f14ce2267d3c26540d684de96263d3efefdf29513b710d5ce0b69a35a5e0029",
  "source": "pragma solidity ^0.4.24;\n\nimport \"@aragon/os/contracts/apps/AragonApp.sol\";\n\nimport \"@tps/apps-address-book/contracts/AddressBook.sol\";\n\nimport \"@aragon/os/contracts/lib/math/SafeMath.sol\";\n\nimport \"@aragon/os/contracts/lib/math/SafeMath64.sol\";\n\n/*******************************************************************************\n    Copyright 2018, That Planning Suite\n    This program is free software: you can redistribute it and/or modify\n    it under the terms of the GNU General Public License as published by\n    the Free Software Foundation, either version 3 of the License, or\n    (at your option) any later version.\n\n    This program is distributed in the hope that it will be useful,\n    but WITHOUT ANY WARRANTY; without even the implied warranty of\n    MERCHANTABILITY or FITNESS FOR A PARTICULAR PURPOSE.  See the\n    GNU General Public License for more details.\n    You should have received a copy of the GNU General Public License\n    along with this program.  If not, see <http://www.gnu.org/licenses/>.\n*******************************************************************************/\n\n/*******************************************************************************\n* @title IsFundable\n* @author Arthur Lunn\n* @dev Basic interface to show something as fundable\n*******************************************************************************/\ninterface Fundable {\n    function fund(uint256 id) external payable;\n}\n\n\n/*******************************************************************************\n* @title FundForwarder\n* @author Arthur Lunn\n* @dev This will 100% break if the contract is upgraded. Basically just a proxy\n*      to receive funds from an address and \"piece it out\" to a layered contract\n*      Any advice on best practice for this would be welcome.\n*******************************************************************************/\ncontract FundForwarder {\n    Fundable fundable;\n    uint256 id;\n\n    constructor(uint256 _id, Fundable _fundable) public {\n        fundable = _fundable;\n        id = _id;\n    }\n\n    function () external payable {\n        fundable.fund.value(msg.value)(id);\n    }\n}\n\n\n/*******************************************************************************\n* @title Allocations Contract\n* @author Arthur Lunn\n* @dev This contract is meant to handle tasks like basic budgeting,\n*      and any time that tokens need to be distributed based on a certain\n*      percentage breakdown to an array of addresses. Currently it works with ETH\n*      needs to be adapted to work with tokens.\n*******************************************************************************/\ncontract Allocations is AragonApp, Fundable {\n\n    using SafeMath for uint256;\n\n    struct Payout {\n        bytes32[] candidateKeys;\n        address[] candidateAddresses;\n        uint256[] supports;\n        //uint256 limit;\n        bool recurring;\n        //bool informational;\n        uint256 period;\n        //uint256 balance;\n        uint256 amount;\n        uint256 startTime;\n        bool distSet;\n        //address token;\n        //address proxy;\n        string description;\n    }\n\n    struct Account {\n        Payout[] payouts;\n        string metadata;\n        uint limit;\n        uint balance;\n        address token;\n        address proxy;\n    }\n\n\n    AddressBook public addressBook;\n    Account[] accounts;\n    Payout[] payouts;\n    mapping(address => uint) accountProxies; // proxy address -> account Id\n\n    bytes32 constant public CREATE_ACCOUNT_ROLE = keccak256(\"CREATE_ACCOUNT_ROLE\");\n    bytes32 constant public SET_DISTRIBUTION_ROLE = keccak256(\"SET_DISTRIBUTION_ROLE\");\n    bytes32 constant public EXECUTE_ALLOCATION_ROLE = keccak256(\"EXECUTE_ALLOCATION_ROLE\");\n\n    event PayoutExecuted(uint256 accountId, uint payoutId);\n    event NewAccount(uint256 accountId);\n    event FundAccount(uint256 accountId);\n    event SetDistribution(uint256 accountId, uint payoutId);\n\n    /**\n    * @dev This is the function that sets up who the candidates will be, and\n    *      where the funds will go for the payout. This is where the payout\n    *      object needs to be created in the payouts array.\n    * @notice Start a payout with the specified candidates and addresses.\n    *         None of the distribution or payments are handled in this step.\n    */\n    function initialize(\n        AddressBook _addressBook\n    ) external onlyInit\n    {\n        addressBook = _addressBook;\n        accounts.length++;  // position 0 is reserved and unused\n        initialized();\n    }\n\n///////////////////////\n// Getter functions\n///////////////////////\n    function getAccount(uint256 _accountId) external view\n    returns(uint256 balance, uint256 limit, string metadata, address token, address proxy, uint256 amount)\n    {\n        Account storage account = accounts[_accountId];\n        limit = account.limit;\n        balance = account.balance;\n        metadata = account.metadata;\n        token = account.token;\n        proxy = account.proxy;\n    }\n\n    function getPayout(uint _accountId, uint _payoutId) external view\n    returns(uint amount, bool recurring, uint startTime, uint period, bool distSet, string description)\n    {\n        Payout storage payout = accounts[_accountId].payouts[_payoutId];\n        amount = payout.amount;\n        startTime = payout.startTime;\n        recurring = payout.recurring;\n        period = payout.period;\n        distSet = payout.distSet;\n        description = payout.description;\n    }\n\n    function getNumberOfCandidates(uint _accountId, uint _payoutId) external view\n    returns(uint256 numCandidates)\n    {\n        Payout storage payout = accounts[_accountId].payouts[_payoutId];\n        numCandidates = payout.supports.length;\n    }\n\n    function getPayoutDistributionValue(uint _accountId, uint256 _payoutId, uint256 idx) external view\n    returns(uint256 supports)\n    {\n        Payout storage payout = accounts[_accountId].payouts[_payoutId];\n        supports = payout.supports[idx];\n    }\n\n///////////////////////\n// Payout functions\n///////////////////////\n    /**\n    * @dev This is the function that sets up who the candidates will be, and\n    *      where the funds will go for the payout. This is where the payout\n    *      object needs to be created in the payouts array.\n    * @notice Create a new account used for creating allocations\n    * @param _metadata Any relevent label for the payout\n    *\n    */\n    function newAccount(\n        string _metadata,\n        uint256 _limit,\n        address _token\n    ) external auth(CREATE_ACCOUNT_ROLE) returns(uint256 accountId)\n    {\n        accountId = accounts.length++;\n        Account storage account = accounts[accountId];\n        account.metadata = _metadata;\n        account.limit = _limit;\n        account.token = _token;\n        account.balance = 0;\n        FundForwarder fund = new FundForwarder(accountId, this);\n        account.proxy = address(fund);\n        accountProxies[account.proxy] = accountId;\n        emit NewAccount(accountId);\n    }\n\n    function fund(uint256 id) external payable {\n        Account storage account = accounts[id];\n        account.balance = account.balance.add(msg.value);\n        emit FundAccount(id);\n    }\n\n    /**\n    * @dev This function distributes the payouts to the candidates in accordance with the distribution values\n    * @notice Send payout amounts to the candidates in accordance with the distribution proportions\n    * @param _payoutId Any relevent label for the payout\n    */\n    function runPayout(uint _accountId, uint256 _payoutId) external auth(EXECUTE_ALLOCATION_ROLE) returns(bool success) {\n        Account storage account = accounts[_accountId];\n        Payout storage payout = account.payouts[_payoutId];\n        uint256 totalSupport;\n        uint i;\n        for (i = 0; i < payout.supports.length; i++) {\n            totalSupport += payout.supports[i];\n        }\n        // Payouts are now instantiated on setDistribution\n        require(payout.distSet);\n        if (payout.recurring) {\n            //TODO create payout execution counter to ensure payout time tracks payouts\n            uint256 payoutTime = payout.startTime.add(payout.period);\n            require(payoutTime < block.timestamp,\"payout period not yet finished\"); // solium-disable-line security/no-block-members\n            payout.startTime = payoutTime;\n        } else {\n            payout.distSet = false;\n        }\n\n        uint individualPayout;\n        //handle vault\n        for (i = 0; i < payout.candidateAddresses.length; i++) {\n            individualPayout = payout.supports[i].mul(payout.amount).div(totalSupport);\n\n            if ( accountProxies[payout.candidateAddresses[i]] > 0 ) {\n                Account storage candidateAccount = accounts[accountProxies[payout.candidateAddresses[i]]];\n                candidateAccount.balance = candidateAccount.balance.add(individualPayout);\n                account.balance = account.balance.sub(individualPayout);\n            } else {\n                payout.candidateAddresses[i].transfer(individualPayout);\n                account.balance = account.balance.sub(individualPayout);\n            }\n        }\n        success = true;\n        emit PayoutExecuted(_accountId, _payoutId);\n    }\n\n    /**\n    * @dev This is the function that the DotVote will call. It doesnt need\n    *      to be called by a DotVote (options get weird if it's not)\n    *      but for our use case the SET_DISTRIBUTION_ROLE will be given to\n    *      the DotVote.\n    * @notice Sets the distribution proportion for this allocation\n    * @param _candidateAddresses Array of candidates to be allocated a portion of the payouut\n    * @param _supports The Array of all support values for the various candidates. These values are set in dot voting\n    * @param _accountId The Account used for the payout\n    * @param _recurring boolean used to indicate whether this is a recurring or one-time payout\n    * @param _period time interval between each recurring payout\n    * @param _amount The quantity of funds to be allocated\n    * @param _description The distributions description\n    */\n    function setDistribution(\n        address[] _candidateAddresses,\n        uint256[] _supports,\n        uint256[] /*unused_infoIndices*/,\n        string /*unused_candidateInfo*/,\n        string _description,\n        uint256[] /*unused_level 1 ID - converted to bytes32*/,\n        uint256[] /*unused_level 2 ID - converted to bytes32*/,\n        uint256 _accountId,\n        bool _recurring,\n        uint256 _period,\n        uint256 _amount\n    ) public auth(SET_DISTRIBUTION_ROLE) returns(uint payoutId)\n    {\n        Account storage account = accounts[_accountId];\n        Payout storage payout = account.payouts[account.payouts.length++];\n\n        require(account.balance >= _amount, \"payout account underfunded\");\n        require(account.limit >= _amount, \"payout amount over account limit\");\n\n        payout.amount = _amount;\n        payout.recurring = _recurring;\n        payout.candidateAddresses = _candidateAddresses;\n\n        if (_recurring) {\n            payout.period = _period;\n            // minimum granularity is a single day\n            // This check is disabled currently to enable testing of shorter times\n            //require(payout.period > 86399,\"period too short\");\n            payout.startTime = block.timestamp; // solium-disable-line security/no-block-members\n        } else {\n            payout.period = 0;\n        }\n\n        payout.distSet = true;\n        payout.supports = _supports;\n        payout.description = _description;\n        emit SetDistribution(_accountId, account.payouts.length - 1);\n    }\n\n}\n",
  "sourcePath": "/home/quazia/Code/planning-app/apps/allocations/contracts/Allocations.sol",
  "compiler": {
    "name": "solc",
    "version": "0.4.24+commit.e67f0147.Emscripten.clang"
  },
  "schemaVersion": "2.0.1",
  "updatedAt": "2019-03-29T21:33:22.469Z"
}